{
  "_format": "hh-sol-artifact-1",
  "contractName": "BuyMyRoom",
  "sourceName": "contracts/BuyMyRoom.sol",
  "abi": [
    {
      "inputs": [],
      "stateMutability": "nonpayable",
      "type": "constructor"
    },
    {
      "anonymous": false,
      "inputs": [
        {
          "indexed": true,
          "internalType": "address",
          "name": "seller",
          "type": "address"
        },
        {
          "indexed": true,
          "internalType": "address",
          "name": "nftAddr",
          "type": "address"
        },
        {
          "indexed": true,
          "internalType": "uint256",
          "name": "tokenId",
          "type": "uint256"
        },
        {
          "indexed": false,
          "internalType": "uint256",
          "name": "price",
          "type": "uint256"
        }
      ],
      "name": "List",
      "type": "event"
    },
    {
      "anonymous": false,
      "inputs": [
        {
          "indexed": true,
          "internalType": "address",
          "name": "buyer",
          "type": "address"
        },
        {
          "indexed": true,
          "internalType": "address",
          "name": "nftAddr",
          "type": "address"
        },
        {
          "indexed": true,
          "internalType": "uint256",
          "name": "tokenId",
          "type": "uint256"
        },
        {
          "indexed": false,
          "internalType": "uint256",
          "name": "price",
          "type": "uint256"
        }
      ],
      "name": "Purchase",
      "type": "event"
    },
    {
      "anonymous": false,
      "inputs": [
        {
          "indexed": true,
          "internalType": "address",
          "name": "seller",
          "type": "address"
        },
        {
          "indexed": true,
          "internalType": "address",
          "name": "nftAddr",
          "type": "address"
        },
        {
          "indexed": true,
          "internalType": "uint256",
          "name": "tokenId",
          "type": "uint256"
        }
      ],
      "name": "Revoke",
      "type": "event"
    },
    {
      "stateMutability": "payable",
      "type": "fallback"
    },
    {
      "inputs": [],
      "name": "_platform",
      "outputs": [
        {
          "internalType": "address",
          "name": "",
          "type": "address"
        }
      ],
      "stateMutability": "view",
      "type": "function"
    },
    {
      "inputs": [
        {
          "internalType": "address",
          "name": "_nftAddr",
          "type": "address"
        },
        {
          "internalType": "uint256",
          "name": "_tokenId",
          "type": "uint256"
        }
      ],
      "name": "getHouse",
      "outputs": [
        {
          "internalType": "address",
          "name": "",
          "type": "address"
        },
        {
          "internalType": "uint256",
          "name": "",
          "type": "uint256"
        },
        {
          "internalType": "uint256",
          "name": "",
          "type": "uint256"
        }
      ],
      "stateMutability": "view",
      "type": "function"
    },
    {
      "inputs": [],
      "name": "helloworld",
      "outputs": [
        {
          "internalType": "string",
          "name": "",
          "type": "string"
        }
      ],
      "stateMutability": "pure",
      "type": "function"
    },
    {
      "inputs": [
        {
          "internalType": "address",
          "name": "",
          "type": "address"
        },
        {
          "internalType": "uint256",
          "name": "",
          "type": "uint256"
        }
      ],
      "name": "houses_list",
      "outputs": [
        {
          "internalType": "address",
          "name": "owner",
          "type": "address"
        },
        {
          "internalType": "uint256",
          "name": "price",
          "type": "uint256"
        },
        {
          "internalType": "uint256",
          "name": "listedTimestamp",
          "type": "uint256"
        }
      ],
      "stateMutability": "view",
      "type": "function"
    },
    {
      "inputs": [
        {
          "internalType": "address",
          "name": "_nftAddr",
          "type": "address"
        },
        {
          "internalType": "uint256",
          "name": "_tokenId",
          "type": "uint256"
        },
        {
          "internalType": "uint256",
          "name": "_price",
          "type": "uint256"
        }
      ],
      "name": "list",
      "outputs": [],
      "stateMutability": "nonpayable",
      "type": "function"
    },
    {
      "inputs": [],
      "name": "myERC721",
      "outputs": [
        {
          "internalType": "contract MyERC721",
          "name": "",
          "type": "address"
        }
      ],
      "stateMutability": "view",
      "type": "function"
    },
    {
      "inputs": [
        {
          "internalType": "address",
          "name": "operator",
          "type": "address"
        },
        {
          "internalType": "address",
          "name": "from",
          "type": "address"
        },
        {
          "internalType": "uint256",
          "name": "tokenId",
          "type": "uint256"
        },
        {
          "internalType": "bytes",
          "name": "data",
          "type": "bytes"
        }
      ],
      "name": "onERC721Received",
      "outputs": [
        {
          "internalType": "bytes4",
          "name": "",
          "type": "bytes4"
        }
      ],
      "stateMutability": "nonpayable",
      "type": "function"
    },
    {
      "inputs": [
        {
          "internalType": "address",
          "name": "_nftAddr",
          "type": "address"
        },
        {
          "internalType": "uint256",
          "name": "_tokenId",
          "type": "uint256"
        }
      ],
      "name": "purchase",
      "outputs": [],
      "stateMutability": "payable",
      "type": "function"
    },
    {
      "inputs": [
        {
          "internalType": "address",
          "name": "_nftAddr",
          "type": "address"
        },
        {
          "internalType": "uint256",
          "name": "_tokenId",
          "type": "uint256"
        }
      ],
      "name": "revoke",
      "outputs": [],
      "stateMutability": "nonpayable",
      "type": "function"
    }
  ],
  "bytecode": "0x60806040523480156200001157600080fd5b506040516200002090620000cf565b6200002b906200018e565b604051809103906000f08015801562000048573d6000803e3d6000fd5b506000806101000a81548173ffffffffffffffffffffffffffffffffffffffff021916908373ffffffffffffffffffffffffffffffffffffffff16021790555033600160006101000a81548173ffffffffffffffffffffffffffffffffffffffff021916908373ffffffffffffffffffffffffffffffffffffffff160217905550620001c5565b61264d806200186683390190565b600082825260208201905092915050565b7f486f757365000000000000000000000000000000000000000000000000000000600082015250565b600062000126600583620000dd565b91506200013382620000ee565b602082019050919050565b7f486f75736553796d626f6c000000000000000000000000000000000000000000600082015250565b600062000176600b83620000dd565b915062000183826200013e565b602082019050919050565b60006040820190508181036000830152620001a98162000117565b90508181036020830152620001be8162000167565b9050919050565b61169180620001d56000396000f3fe60806040526004361061008a5760003560e01c80638f334e8d116100595780638f334e8d1461013c578063b53e270514610167578063dda342bb146101a6578063e40b51a7146101cf578063eac449d91461020e5761008b565b8063150b7a021461008d5780631adc7d4c146100ca5780632f2f4859146100f55780638de93222146101205761008b565b5b005b34801561009957600080fd5b506100b460048036038101906100af9190610f3f565b610237565b6040516100c19190611002565b60405180910390f35b3480156100d657600080fd5b506100df61024c565b6040516100ec919061102c565b60405180910390f35b34801561010157600080fd5b5061010a610272565b60405161011791906110d7565b60405180910390f35b61013a600480360381019061013591906110f9565b6102af565b005b34801561014857600080fd5b50610151610782565b60405161015e9190611198565b60405180910390f35b34801561017357600080fd5b5061018e600480360381019061018991906110f9565b6107a6565b60405161019d939291906111c2565b60405180910390f35b3480156101b257600080fd5b506101cd60048036038101906101c891906111f9565b6107fd565b005b3480156101db57600080fd5b506101f660048036038101906101f191906110f9565b610a7b565b604051610205939291906111c2565b60405180910390f35b34801561021a57600080fd5b50610235600480360381019061023091906110f9565b610b10565b005b600063150b7a0260e01b905095945050505050565b600160009054906101000a900473ffffffffffffffffffffffffffffffffffffffff1681565b60606040518060400160405280600781526020017f48656c6c6f212000000000000000000000000000000000000000000000000000815250905090565b6000600260008473ffffffffffffffffffffffffffffffffffffffff1673ffffffffffffffffffffffffffffffffffffffff16815260200190815260200160002060008381526020019081526020016000209050600081600101541161034a576040517f08c379a000000000000000000000000000000000000000000000000000000000815260040161034190611298565b60405180910390fd5b6000600a82600201544261035e91906112e7565b610368919061131b565b62278d00610376919061135d565b82600201544261038691906112e7565b8360010154610395919061131b565b61039f91906113c0565b90508082600101546103b1919061135d565b3410156103f3576040517f08c379a00000000000000000000000000000000000000000000000000000000081526004016103ea9061143d565b60405180910390fd5b60008490503073ffffffffffffffffffffffffffffffffffffffff168173ffffffffffffffffffffffffffffffffffffffff16636352211e866040518263ffffffff1660e01b8152600401610448919061145d565b602060405180830381865afa158015610465573d6000803e3d6000fd5b505050506040513d601f19601f82011682018060405250810190610489919061148d565b73ffffffffffffffffffffffffffffffffffffffff16146104df576040517f08c379a00000000000000000000000000000000000000000000000000000000081526004016104d69061152c565b60405180910390fd5b8073ffffffffffffffffffffffffffffffffffffffff166342842e0e3033876040518463ffffffff1660e01b815260040161051c9392919061154c565b600060405180830381600087803b15801561053657600080fd5b505af115801561054a573d6000803e3d6000fd5b505050508260000160009054906101000a900473ffffffffffffffffffffffffffffffffffffffff1673ffffffffffffffffffffffffffffffffffffffff166108fc84600101549081150290604051600060405180830381858888f193505050501580156105bc573d6000803e3d6000fd5b50600160009054906101000a900473ffffffffffffffffffffffffffffffffffffffff1673ffffffffffffffffffffffffffffffffffffffff166108fc839081150290604051600060405180830381858888f19350505050158015610625573d6000803e3d6000fd5b503373ffffffffffffffffffffffffffffffffffffffff166108fc8385600101543461065191906112e7565b61065b91906112e7565b9081150290604051600060405180830381858888f19350505050158015610686573d6000803e3d6000fd5b50600260008673ffffffffffffffffffffffffffffffffffffffff1673ffffffffffffffffffffffffffffffffffffffff1681526020019081526020016000206000858152602001908152602001600020600080820160006101000a81549073ffffffffffffffffffffffffffffffffffffffff0219169055600182016000905560028201600090555050838573ffffffffffffffffffffffffffffffffffffffff163373ffffffffffffffffffffffffffffffffffffffff167f46661dab58311a6838247afecbee792192b4f27fc8b3e7168c66bc55ec2e404e8660010154604051610773919061145d565b60405180910390a45050505050565b60008054906101000a900473ffffffffffffffffffffffffffffffffffffffff1681565b6002602052816000526040600020602052806000526040600020600091509150508060000160009054906101000a900473ffffffffffffffffffffffffffffffffffffffff16908060010154908060020154905083565b60008390503073ffffffffffffffffffffffffffffffffffffffff168173ffffffffffffffffffffffffffffffffffffffff1663081812fc856040518263ffffffff1660e01b8152600401610852919061145d565b602060405180830381865afa15801561086f573d6000803e3d6000fd5b505050506040513d601f19601f82011682018060405250810190610893919061148d565b73ffffffffffffffffffffffffffffffffffffffff16146108e9576040517f08c379a00000000000000000000000000000000000000000000000000000000081526004016108e0906115cf565b60405180910390fd5b600082116108f657600080fd5b6000600260008673ffffffffffffffffffffffffffffffffffffffff1673ffffffffffffffffffffffffffffffffffffffff16815260200190815260200160002060008581526020019081526020016000209050338160000160006101000a81548173ffffffffffffffffffffffffffffffffffffffff021916908373ffffffffffffffffffffffffffffffffffffffff1602179055508281600101819055504281600201819055508173ffffffffffffffffffffffffffffffffffffffff166342842e0e3330876040518463ffffffff1660e01b81526004016109dc9392919061154c565b600060405180830381600087803b1580156109f657600080fd5b505af1158015610a0a573d6000803e3d6000fd5b50505050838573ffffffffffffffffffffffffffffffffffffffff163373ffffffffffffffffffffffffffffffffffffffff167fedbdf022944a3291f4b30148903a84720506f48e10478ec5812e5caf30e1fab086604051610a6c919061145d565b60405180910390a45050505050565b600080600080600260008773ffffffffffffffffffffffffffffffffffffffff1673ffffffffffffffffffffffffffffffffffffffff168152602001908152602001600020600086815260200190815260200160002090508060000160009054906101000a900473ffffffffffffffffffffffffffffffffffffffff1681600101548260020154935093509350509250925092565b6000600260008473ffffffffffffffffffffffffffffffffffffffff1673ffffffffffffffffffffffffffffffffffffffff168152602001908152602001600020600083815260200190815260200160002090503373ffffffffffffffffffffffffffffffffffffffff168160000160009054906101000a900473ffffffffffffffffffffffffffffffffffffffff1673ffffffffffffffffffffffffffffffffffffffff1614610bf6576040517f08c379a0000000000000000000000000000000000000000000000000000000008152600401610bed9061163b565b60405180910390fd5b60008390503073ffffffffffffffffffffffffffffffffffffffff168173ffffffffffffffffffffffffffffffffffffffff16636352211e856040518263ffffffff1660e01b8152600401610c4b919061145d565b602060405180830381865afa158015610c68573d6000803e3d6000fd5b505050506040513d601f19601f82011682018060405250810190610c8c919061148d565b73ffffffffffffffffffffffffffffffffffffffff1614610ce2576040517f08c379a0000000000000000000000000000000000000000000000000000000008152600401610cd99061152c565b60405180910390fd5b8073ffffffffffffffffffffffffffffffffffffffff166342842e0e3033866040518463ffffffff1660e01b8152600401610d1f9392919061154c565b600060405180830381600087803b158015610d3957600080fd5b505af1158015610d4d573d6000803e3d6000fd5b50505050600260008573ffffffffffffffffffffffffffffffffffffffff1673ffffffffffffffffffffffffffffffffffffffff1681526020019081526020016000206000848152602001908152602001600020600080820160006101000a81549073ffffffffffffffffffffffffffffffffffffffff0219169055600182016000905560028201600090555050828473ffffffffffffffffffffffffffffffffffffffff163373ffffffffffffffffffffffffffffffffffffffff167fb698e31a2abee5824d0d7bcfd2339aead7f9e9ae413fba50bf554ff3fa470b7b60405160405180910390a450505050565b600080fd5b600080fd5b600073ffffffffffffffffffffffffffffffffffffffff82169050919050565b6000610e7182610e46565b9050919050565b610e8181610e66565b8114610e8c57600080fd5b50565b600081359050610e9e81610e78565b92915050565b6000819050919050565b610eb781610ea4565b8114610ec257600080fd5b50565b600081359050610ed481610eae565b92915050565b600080fd5b600080fd5b600080fd5b60008083601f840112610eff57610efe610eda565b5b8235905067ffffffffffffffff811115610f1c57610f1b610edf565b5b602083019150836001820283011115610f3857610f37610ee4565b5b9250929050565b600080600080600060808688031215610f5b57610f5a610e3c565b5b6000610f6988828901610e8f565b9550506020610f7a88828901610e8f565b9450506040610f8b88828901610ec5565b935050606086013567ffffffffffffffff811115610fac57610fab610e41565b5b610fb888828901610ee9565b92509250509295509295909350565b60007fffffffff0000000000000000000000000000000000000000000000000000000082169050919050565b610ffc81610fc7565b82525050565b60006020820190506110176000830184610ff3565b92915050565b61102681610e66565b82525050565b6000602082019050611041600083018461101d565b92915050565b600081519050919050565b600082825260208201905092915050565b60005b83811015611081578082015181840152602081019050611066565b60008484015250505050565b6000601f19601f8301169050919050565b60006110a982611047565b6110b38185611052565b93506110c3818560208601611063565b6110cc8161108d565b840191505092915050565b600060208201905081810360008301526110f1818461109e565b905092915050565b600080604083850312156111105761110f610e3c565b5b600061111e85828601610e8f565b925050602061112f85828601610ec5565b9150509250929050565b6000819050919050565b600061115e61115961115484610e46565b611139565b610e46565b9050919050565b600061117082611143565b9050919050565b600061118282611165565b9050919050565b61119281611177565b82525050565b60006020820190506111ad6000830184611189565b92915050565b6111bc81610ea4565b82525050565b60006060820190506111d7600083018661101d565b6111e460208301856111b3565b6111f160408301846111b3565b949350505050565b60008060006060848603121561121257611211610e3c565b5b600061122086828701610e8f565b935050602061123186828701610ec5565b925050604061124286828701610ec5565b9150509250925092565b7f5072696365203020697320696e76616c69642070726963650000000000000000600082015250565b6000611282601883611052565b915061128d8261124c565b602082019050919050565b600060208201905081810360008301526112b181611275565b9050919050565b7f4e487b7100000000000000000000000000000000000000000000000000000000600052601160045260246000fd5b60006112f282610ea4565b91506112fd83610ea4565b9250828203905081811115611315576113146112b8565b5b92915050565b600061132682610ea4565b915061133183610ea4565b925082820261133f81610ea4565b91508282048414831517611356576113556112b8565b5b5092915050565b600061136882610ea4565b915061137383610ea4565b925082820190508082111561138b5761138a6112b8565b5b92915050565b7f4e487b7100000000000000000000000000000000000000000000000000000000600052601260045260246000fd5b60006113cb82610ea4565b91506113d683610ea4565b9250826113e6576113e5611391565b5b828204905092915050565b7f5072696365206973206e6f7420656e6f75676800000000000000000000000000600082015250565b6000611427601383611052565b9150611432826113f1565b602082019050919050565b600060208201905081810360008301526114568161141a565b9050919050565b600060208201905061147260008301846111b3565b92915050565b60008151905061148781610e78565b92915050565b6000602082840312156114a3576114a2610e3c565b5b60006114b184828501611478565b91505092915050565b7f54686520686f7573652063616e6e6f7420626520666f756e6420696e2074686560008201527f20636f6e74726163740000000000000000000000000000000000000000000000602082015250565b6000611516602983611052565b9150611521826114ba565b604082019050919050565b6000602082019050818103600083015261154581611509565b9050919050565b6000606082019050611561600083018661101d565b61156e602083018561101d565b61157b60408301846111b3565b949350505050565b7f4e6f20417070726f76616c20666f72206f757220706c6174666f726d00000000600082015250565b60006115b9601c83611052565b91506115c482611583565b602082019050919050565b600060208201905081810360008301526115e8816115ac565b9050919050565b7f4e6f74204f776e65720000000000000000000000000000000000000000000000600082015250565b6000611625600983611052565b9150611630826115ef565b602082019050919050565b6000602082019050818103600083015261165481611618565b905091905056fea2646970667358221220778e4949eb550c11165ff2990552a4f1467bf077fcba7e987a41c039d600892764736f6c63430008140033608060405260006006553480156200001657600080fd5b506040516200264d3803806200264d83398181016040528101906200003c9190620001ff565b818181600090816200004f9190620004cf565b508060019081620000619190620004cf565b5050505050620005b6565b6000604051905090565b600080fd5b600080fd5b600080fd5b600080fd5b6000601f19601f8301169050919050565b7f4e487b7100000000000000000000000000000000000000000000000000000000600052604160045260246000fd5b620000d5826200008a565b810181811067ffffffffffffffff82111715620000f757620000f66200009b565b5b80604052505050565b60006200010c6200006c565b90506200011a8282620000ca565b919050565b600067ffffffffffffffff8211156200013d576200013c6200009b565b5b62000148826200008a565b9050602081019050919050565b60005b838110156200017557808201518184015260208101905062000158565b60008484015250505050565b60006200019862000192846200011f565b62000100565b905082815260208101848484011115620001b757620001b662000085565b5b620001c484828562000155565b509392505050565b600082601f830112620001e457620001e362000080565b5b8151620001f684826020860162000181565b91505092915050565b6000806040838503121562000219576200021862000076565b5b600083015167ffffffffffffffff8111156200023a57620002396200007b565b5b6200024885828601620001cc565b925050602083015167ffffffffffffffff8111156200026c576200026b6200007b565b5b6200027a85828601620001cc565b9150509250929050565b600081519050919050565b7f4e487b7100000000000000000000000000000000000000000000000000000000600052602260045260246000fd5b60006002820490506001821680620002d757607f821691505b602082108103620002ed57620002ec6200028f565b5b50919050565b60008190508160005260206000209050919050565b60006020601f8301049050919050565b600082821b905092915050565b600060088302620003577fffffffffffffffffffffffffffffffffffffffffffffffffffffffffffffffff8262000318565b62000363868362000318565b95508019841693508086168417925050509392505050565b6000819050919050565b6000819050919050565b6000620003b0620003aa620003a4846200037b565b62000385565b6200037b565b9050919050565b6000819050919050565b620003cc836200038f565b620003e4620003db82620003b7565b84845462000325565b825550505050565b600090565b620003fb620003ec565b62000408818484620003c1565b505050565b5b81811015620004305762000424600082620003f1565b6001810190506200040e565b5050565b601f8211156200047f576200044981620002f3565b620004548462000308565b8101602085101562000464578190505b6200047c620004738562000308565b8301826200040d565b50505b505050565b600082821c905092915050565b6000620004a46000198460080262000484565b1980831691505092915050565b6000620004bf838362000491565b9150826002028217905092915050565b620004da8262000284565b67ffffffffffffffff811115620004f657620004f56200009b565b5b620005028254620002be565b6200050f82828562000434565b600060209050601f83116001811462000547576000841562000532578287015190505b6200053e8582620004b1565b865550620005ae565b601f1984166200055786620002f3565b60005b8281101562000581578489015182556001820191506020850194506020810190506200055a565b86831015620005a157848901516200059d601f89168262000491565b8355505b6001600288020188555050505b505050505050565b61208780620005c66000396000f3fe608060405234801561001057600080fd5b50600436106101165760003560e01c806370a08231116100a2578063a22cb46511610071578063a22cb465146102f3578063b88d4fde1461030f578063c87b56dd1461032b578063e6bc39da1461035b578063e985e9c51461037957610116565b806370a082311461026957806389a89002146102995780638b11a71e146102b757806395d89b41146102d557610116565b806323b872dd116100e957806323b872dd146101b557806342842e0e146101d157806345d37cbb146101ed5780636352211e1461021d5780636a6278421461024d57610116565b806301ffc9a71461011b57806306fdde031461014b578063081812fc14610169578063095ea7b314610199575b600080fd5b610135600480360381019061013091906117bf565b6103a9565b6040516101429190611807565b60405180910390f35b61015361048b565b60405161016091906118b2565b60405180910390f35b610183600480360381019061017e919061190a565b61051d565b6040516101909190611978565b60405180910390f35b6101b360048036038101906101ae91906119bf565b610539565b005b6101cf60048036038101906101ca91906119ff565b61054f565b005b6101eb60048036038101906101e691906119ff565b610651565b005b610207600480360381019061020291906119bf565b610671565b6040516102149190611a61565b60405180910390f35b6102376004803603810190610232919061190a565b610699565b6040516102449190611978565b60405180910390f35b61026760048036038101906102629190611a7c565b6106ab565b005b610283600480360381019061027e9190611a7c565b610781565b6040516102909190611a61565b60405180910390f35b6102a161083b565b6040516102ae9190611a61565b60405180910390f35b6102bf610841565b6040516102cc9190611a61565b60405180910390f35b6102dd61084b565b6040516102ea91906118b2565b60405180910390f35b61030d60048036038101906103089190611ad5565b6108dd565b005b61032960048036038101906103249190611c4a565b6108f3565b005b6103456004803603810190610340919061190a565b610910565b60405161035291906118b2565b60405180910390f35b610363610979565b6040516103709190611a61565b60405180910390f35b610393600480360381019061038e9190611ccd565b61097e565b6040516103a09190611807565b60405180910390f35b60007f80ac58cd000000000000000000000000000000000000000000000000000000007bffffffffffffffffffffffffffffffffffffffffffffffffffffffff1916827bffffffffffffffffffffffffffffffffffffffffffffffffffffffff1916148061047457507f5b5e139f000000000000000000000000000000000000000000000000000000007bffffffffffffffffffffffffffffffffffffffffffffffffffffffff1916827bffffffffffffffffffffffffffffffffffffffffffffffffffffffff1916145b80610484575061048382610a12565b5b9050919050565b60606000805461049a90611d3c565b80601f01602080910402602001604051908101604052809291908181526020018280546104c690611d3c565b80156105135780601f106104e857610100808354040283529160200191610513565b820191906000526020600020905b8154815290600101906020018083116104f657829003601f168201915b5050505050905090565b600061052882610a7c565b5061053282610b04565b9050919050565b61054b8282610546610b41565b610b49565b5050565b600073ffffffffffffffffffffffffffffffffffffffff168273ffffffffffffffffffffffffffffffffffffffff16036105c15760006040517f64a0ae920000000000000000000000000000000000000000000000000000000081526004016105b89190611978565b60405180910390fd5b60006105d583836105d0610b41565b610b5b565b90508373ffffffffffffffffffffffffffffffffffffffff168173ffffffffffffffffffffffffffffffffffffffff161461064b578382826040517f64283d7b00000000000000000000000000000000000000000000000000000000815260040161064293929190611d6d565b60405180910390fd5b50505050565b61066c838383604051806020016040528060008152506108f3565b505050565b6007602052816000526040600020816064811061068d57600080fd5b01600091509150505481565b60006106a482610a7c565b9050919050565b6000600654101580156106c057506064600654105b6106ff576040517f08c379a00000000000000000000000000000000000000000000000000000000081526004016106f690611df0565b60405180910390fd5b61070b81600654610d75565b600654600760008373ffffffffffffffffffffffffffffffffffffffff1673ffffffffffffffffffffffffffffffffffffffff1681526020019081526020016000206006546064811061076157610760611e10565b5b01819055506006600081548092919061077990611e6e565b919050555050565b60008073ffffffffffffffffffffffffffffffffffffffff168273ffffffffffffffffffffffffffffffffffffffff16036107f45760006040517f89c62b640000000000000000000000000000000000000000000000000000000081526004016107eb9190611978565b60405180910390fd5b600360008373ffffffffffffffffffffffffffffffffffffffff1673ffffffffffffffffffffffffffffffffffffffff168152602001908152602001600020549050919050565b60065481565b6000600654905090565b60606001805461085a90611d3c565b80601f016020809104026020016040519081016040528092919081815260200182805461088690611d3c565b80156108d35780601f106108a8576101008083540402835291602001916108d3565b820191906000526020600020905b8154815290600101906020018083116108b657829003601f168201915b5050505050905090565b6108ef6108e8610b41565b8383610e6e565b5050565b6108fe84848461054f565b61090a84848484610fdd565b50505050565b606061091b82610a7c565b506000610926611194565b905060008151116109465760405180602001604052806000815250610971565b80610950846111ab565b604051602001610961929190611ef2565b6040516020818303038152906040525b915050919050565b606481565b6000600560008473ffffffffffffffffffffffffffffffffffffffff1673ffffffffffffffffffffffffffffffffffffffff16815260200190815260200160002060008373ffffffffffffffffffffffffffffffffffffffff1673ffffffffffffffffffffffffffffffffffffffff16815260200190815260200160002060009054906101000a900460ff16905092915050565b60007f01ffc9a7000000000000000000000000000000000000000000000000000000007bffffffffffffffffffffffffffffffffffffffffffffffffffffffff1916827bffffffffffffffffffffffffffffffffffffffffffffffffffffffff1916149050919050565b600080610a8883611279565b9050600073ffffffffffffffffffffffffffffffffffffffff168173ffffffffffffffffffffffffffffffffffffffff1603610afb57826040517f7e273289000000000000000000000000000000000000000000000000000000008152600401610af29190611a61565b60405180910390fd5b80915050919050565b60006004600083815260200190815260200160002060009054906101000a900473ffffffffffffffffffffffffffffffffffffffff169050919050565b600033905090565b610b5683838360016112b6565b505050565b600080610b6784611279565b9050600073ffffffffffffffffffffffffffffffffffffffff168373ffffffffffffffffffffffffffffffffffffffff1614610ba957610ba881848661147b565b5b600073ffffffffffffffffffffffffffffffffffffffff168173ffffffffffffffffffffffffffffffffffffffff1614610c3a57610beb6000856000806112b6565b6001600360008373ffffffffffffffffffffffffffffffffffffffff1673ffffffffffffffffffffffffffffffffffffffff168152602001908152602001600020600082825403925050819055505b600073ffffffffffffffffffffffffffffffffffffffff168573ffffffffffffffffffffffffffffffffffffffff1614610cbd576001600360008773ffffffffffffffffffffffffffffffffffffffff1673ffffffffffffffffffffffffffffffffffffffff168152602001908152602001600020600082825401925050819055505b846002600086815260200190815260200160002060006101000a81548173ffffffffffffffffffffffffffffffffffffffff021916908373ffffffffffffffffffffffffffffffffffffffff160217905550838573ffffffffffffffffffffffffffffffffffffffff168273ffffffffffffffffffffffffffffffffffffffff167fddf252ad1be2c89b69c2b068fc378daa952ba7f163c4a11628f55a4df523b3ef60405160405180910390a4809150509392505050565b600073ffffffffffffffffffffffffffffffffffffffff168273ffffffffffffffffffffffffffffffffffffffff1603610de75760006040517f64a0ae92000000000000000000000000000000000000000000000000000000008152600401610dde9190611978565b60405180910390fd5b6000610df583836000610b5b565b9050600073ffffffffffffffffffffffffffffffffffffffff168173ffffffffffffffffffffffffffffffffffffffff1614610e695760006040517f73c6ac6e000000000000000000000000000000000000000000000000000000008152600401610e609190611978565b60405180910390fd5b505050565b600073ffffffffffffffffffffffffffffffffffffffff168273ffffffffffffffffffffffffffffffffffffffff1603610edf57816040517f5b08ba18000000000000000000000000000000000000000000000000000000008152600401610ed69190611978565b60405180910390fd5b80600560008573ffffffffffffffffffffffffffffffffffffffff1673ffffffffffffffffffffffffffffffffffffffff16815260200190815260200160002060008473ffffffffffffffffffffffffffffffffffffffff1673ffffffffffffffffffffffffffffffffffffffff16815260200190815260200160002060006101000a81548160ff0219169083151502179055508173ffffffffffffffffffffffffffffffffffffffff168373ffffffffffffffffffffffffffffffffffffffff167f17307eab39ab6107e8899845ad3d59bd9653f200f220920489ca2b5937696c3183604051610fd09190611807565b60405180910390a3505050565b60008373ffffffffffffffffffffffffffffffffffffffff163b111561118e578273ffffffffffffffffffffffffffffffffffffffff1663150b7a02611021610b41565b8685856040518563ffffffff1660e01b81526004016110439493929190611f6b565b6020604051808303816000875af192505050801561107f57506040513d601f19601f8201168201806040525081019061107c9190611fcc565b60015b611103573d80600081146110af576040519150601f19603f3d011682016040523d82523d6000602084013e6110b4565b606091505b5060008151036110fb57836040517f64a0ae920000000000000000000000000000000000000000000000000000000081526004016110f29190611978565b60405180910390fd5b805181602001fd5b63150b7a0260e01b7bffffffffffffffffffffffffffffffffffffffffffffffffffffffff1916817bffffffffffffffffffffffffffffffffffffffffffffffffffffffff19161461118c57836040517f64a0ae920000000000000000000000000000000000000000000000000000000081526004016111839190611978565b60405180910390fd5b505b50505050565b606060405180602001604052806000815250905090565b6060600060016111ba8461153f565b01905060008167ffffffffffffffff8111156111d9576111d8611b1f565b5b6040519080825280601f01601f19166020018201604052801561120b5781602001600182028036833780820191505090505b509050600082602001820190505b60011561126e578080600190039150507f3031323334353637383961626364656600000000000000000000000000000000600a86061a8153600a858161126257611261611ff9565b5b04945060008503611219575b819350505050919050565b60006002600083815260200190815260200160002060009054906101000a900473ffffffffffffffffffffffffffffffffffffffff169050919050565b80806112ef5750600073ffffffffffffffffffffffffffffffffffffffff168273ffffffffffffffffffffffffffffffffffffffff1614155b156114235760006112ff84610a7c565b9050600073ffffffffffffffffffffffffffffffffffffffff168373ffffffffffffffffffffffffffffffffffffffff161415801561136a57508273ffffffffffffffffffffffffffffffffffffffff168173ffffffffffffffffffffffffffffffffffffffff1614155b801561137d575061137b818461097e565b155b156113bf57826040517fa9fbf51f0000000000000000000000000000000000000000000000000000000081526004016113b69190611978565b60405180910390fd5b811561142157838573ffffffffffffffffffffffffffffffffffffffff168273ffffffffffffffffffffffffffffffffffffffff167f8c5be1e5ebec7d5bd14f71427d1e84f3dd0314c0f7b2291e5b200ac8c7c3b92560405160405180910390a45b505b836004600085815260200190815260200160002060006101000a81548173ffffffffffffffffffffffffffffffffffffffff021916908373ffffffffffffffffffffffffffffffffffffffff16021790555050505050565b611486838383611692565b61153a57600073ffffffffffffffffffffffffffffffffffffffff168373ffffffffffffffffffffffffffffffffffffffff16036114fb57806040517f7e2732890000000000000000000000000000000000000000000000000000000081526004016114f29190611a61565b60405180910390fd5b81816040517f177e802f000000000000000000000000000000000000000000000000000000008152600401611531929190612028565b60405180910390fd5b505050565b600080600090507a184f03e93ff9f4daa797ed6e38ed64bf6a1f010000000000000000831061159d577a184f03e93ff9f4daa797ed6e38ed64bf6a1f010000000000000000838161159357611592611ff9565b5b0492506040810190505b6d04ee2d6d415b85acef810000000083106115da576d04ee2d6d415b85acef810000000083816115d0576115cf611ff9565b5b0492506020810190505b662386f26fc10000831061160957662386f26fc1000083816115ff576115fe611ff9565b5b0492506010810190505b6305f5e1008310611632576305f5e100838161162857611627611ff9565b5b0492506008810190505b612710831061165757612710838161164d5761164c611ff9565b5b0492506004810190505b6064831061167a57606483816116705761166f611ff9565b5b0492506002810190505b600a8310611689576001810190505b80915050919050565b60008073ffffffffffffffffffffffffffffffffffffffff168373ffffffffffffffffffffffffffffffffffffffff161415801561174a57508273ffffffffffffffffffffffffffffffffffffffff168473ffffffffffffffffffffffffffffffffffffffff16148061170b575061170a848461097e565b5b8061174957508273ffffffffffffffffffffffffffffffffffffffff1661173183610b04565b73ffffffffffffffffffffffffffffffffffffffff16145b5b90509392505050565b6000604051905090565b600080fd5b600080fd5b60007fffffffff0000000000000000000000000000000000000000000000000000000082169050919050565b61179c81611767565b81146117a757600080fd5b50565b6000813590506117b981611793565b92915050565b6000602082840312156117d5576117d461175d565b5b60006117e3848285016117aa565b91505092915050565b60008115159050919050565b611801816117ec565b82525050565b600060208201905061181c60008301846117f8565b92915050565b600081519050919050565b600082825260208201905092915050565b60005b8381101561185c578082015181840152602081019050611841565b60008484015250505050565b6000601f19601f8301169050919050565b600061188482611822565b61188e818561182d565b935061189e81856020860161183e565b6118a781611868565b840191505092915050565b600060208201905081810360008301526118cc8184611879565b905092915050565b6000819050919050565b6118e7816118d4565b81146118f257600080fd5b50565b600081359050611904816118de565b92915050565b6000602082840312156119205761191f61175d565b5b600061192e848285016118f5565b91505092915050565b600073ffffffffffffffffffffffffffffffffffffffff82169050919050565b600061196282611937565b9050919050565b61197281611957565b82525050565b600060208201905061198d6000830184611969565b92915050565b61199c81611957565b81146119a757600080fd5b50565b6000813590506119b981611993565b92915050565b600080604083850312156119d6576119d561175d565b5b60006119e4858286016119aa565b92505060206119f5858286016118f5565b9150509250929050565b600080600060608486031215611a1857611a1761175d565b5b6000611a26868287016119aa565b9350506020611a37868287016119aa565b9250506040611a48868287016118f5565b9150509250925092565b611a5b816118d4565b82525050565b6000602082019050611a766000830184611a52565b92915050565b600060208284031215611a9257611a9161175d565b5b6000611aa0848285016119aa565b91505092915050565b611ab2816117ec565b8114611abd57600080fd5b50565b600081359050611acf81611aa9565b92915050565b60008060408385031215611aec57611aeb61175d565b5b6000611afa858286016119aa565b9250506020611b0b85828601611ac0565b9150509250929050565b600080fd5b600080fd5b7f4e487b7100000000000000000000000000000000000000000000000000000000600052604160045260246000fd5b611b5782611868565b810181811067ffffffffffffffff82111715611b7657611b75611b1f565b5b80604052505050565b6000611b89611753565b9050611b958282611b4e565b919050565b600067ffffffffffffffff821115611bb557611bb4611b1f565b5b611bbe82611868565b9050602081019050919050565b82818337600083830152505050565b6000611bed611be884611b9a565b611b7f565b905082815260208101848484011115611c0957611c08611b1a565b5b611c14848285611bcb565b509392505050565b600082601f830112611c3157611c30611b15565b5b8135611c41848260208601611bda565b91505092915050565b60008060008060808587031215611c6457611c6361175d565b5b6000611c72878288016119aa565b9450506020611c83878288016119aa565b9350506040611c94878288016118f5565b925050606085013567ffffffffffffffff811115611cb557611cb4611762565b5b611cc187828801611c1c565b91505092959194509250565b60008060408385031215611ce457611ce361175d565b5b6000611cf2858286016119aa565b9250506020611d03858286016119aa565b9150509250929050565b7f4e487b7100000000000000000000000000000000000000000000000000000000600052602260045260246000fd5b60006002820490506001821680611d5457607f821691505b602082108103611d6757611d66611d0d565b5b50919050565b6000606082019050611d826000830186611969565b611d8f6020830185611a52565b611d9c6040830184611969565b949350505050565b7f4e46542072756e206f7574000000000000000000000000000000000000000000600082015250565b6000611dda600b8361182d565b9150611de582611da4565b602082019050919050565b60006020820190508181036000830152611e0981611dcd565b9050919050565b7f4e487b7100000000000000000000000000000000000000000000000000000000600052603260045260246000fd5b7f4e487b7100000000000000000000000000000000000000000000000000000000600052601160045260246000fd5b6000611e79826118d4565b91507fffffffffffffffffffffffffffffffffffffffffffffffffffffffffffffffff8203611eab57611eaa611e3f565b5b600182019050919050565b600081905092915050565b6000611ecc82611822565b611ed68185611eb6565b9350611ee681856020860161183e565b80840191505092915050565b6000611efe8285611ec1565b9150611f0a8284611ec1565b91508190509392505050565b600081519050919050565b600082825260208201905092915050565b6000611f3d82611f16565b611f478185611f21565b9350611f5781856020860161183e565b611f6081611868565b840191505092915050565b6000608082019050611f806000830187611969565b611f8d6020830186611969565b611f9a6040830185611a52565b8181036060830152611fac8184611f32565b905095945050505050565b600081519050611fc681611793565b92915050565b600060208284031215611fe257611fe161175d565b5b6000611ff084828501611fb7565b91505092915050565b7f4e487b7100000000000000000000000000000000000000000000000000000000600052601260045260246000fd5b600060408201905061203d6000830185611969565b61204a6020830184611a52565b939250505056fea264697066735822122062e3bf3532d816fd7bb5f8839078e688677e81d962d4f47fc55ea4af479a425464736f6c63430008140033",
  "linkReferences": {},
  "deployedLinkReferences": {}
}