{
  "_format": "hh-sol-artifact-1",
  "contractName": "BuyMyRoom",
  "sourceName": "contracts/BuyMyRoom.sol",
  "abi": [
    {
      "inputs": [],
      "stateMutability": "nonpayable",
      "type": "constructor"
    },
    {
      "inputs": [],
      "name": "helloworld",
      "outputs": [
        {
          "internalType": "string",
          "name": "",
          "type": "string"
        }
      ],
      "stateMutability": "pure",
      "type": "function"
    },
    {
      "inputs": [
        {
          "internalType": "uint256",
          "name": "",
          "type": "uint256"
        }
      ],
      "name": "houses",
      "outputs": [
        {
          "internalType": "address",
          "name": "owner",
          "type": "address"
        },
        {
          "internalType": "uint256",
          "name": "listedTimestamp",
          "type": "uint256"
        }
      ],
      "stateMutability": "view",
      "type": "function"
    },
    {
      "inputs": [],
      "name": "myERC721",
      "outputs": [
        {
          "internalType": "contract MyERC721",
          "name": "",
          "type": "address"
        }
      ],
      "stateMutability": "view",
      "type": "function"
    }
  ],
  "bytecode": "0x608060405234801561001057600080fd5b5060405161001d90610087565b6100269061013d565b604051809103906000f080158015610042573d6000803e3d6000fd5b506000806101000a81548173ffffffffffffffffffffffffffffffffffffffff021916908373ffffffffffffffffffffffffffffffffffffffff160217905550610170565b61246d8061051a83390190565b600082825260208201905092915050565b7f486f757365000000000000000000000000000000000000000000000000000000600082015250565b60006100db600583610094565b91506100e6826100a5565b602082019050919050565b7f486f75736553796d626f6c000000000000000000000000000000000000000000600082015250565b6000610127600b83610094565b9150610132826100f1565b602082019050919050565b60006040820190508181036000830152610156816100ce565b905081810360208301526101698161011a565b9050919050565b61039b8061017f6000396000f3fe608060405234801561001057600080fd5b50600436106100415760003560e01c80632f2f4859146100465780638f334e8d14610064578063aeda852f14610082575b600080fd5b61004e6100b3565b60405161005b91906101e8565b60405180910390f35b61006c6100f0565b6040516100799190610289565b60405180910390f35b61009c600480360381019061009791906102df565b610114565b6040516100aa92919061033c565b60405180910390f35b60606040518060400160405280600b81526020017f68656c6c6f20776f726c64000000000000000000000000000000000000000000815250905090565b60008054906101000a900473ffffffffffffffffffffffffffffffffffffffff1681565b60016020528060005260406000206000915090508060000160009054906101000a900473ffffffffffffffffffffffffffffffffffffffff16908060010154905082565b600081519050919050565b600082825260208201905092915050565b60005b83811015610192578082015181840152602081019050610177565b60008484015250505050565b6000601f19601f8301169050919050565b60006101ba82610158565b6101c48185610163565b93506101d4818560208601610174565b6101dd8161019e565b840191505092915050565b6000602082019050818103600083015261020281846101af565b905092915050565b600073ffffffffffffffffffffffffffffffffffffffff82169050919050565b6000819050919050565b600061024f61024a6102458461020a565b61022a565b61020a565b9050919050565b600061026182610234565b9050919050565b600061027382610256565b9050919050565b61028381610268565b82525050565b600060208201905061029e600083018461027a565b92915050565b600080fd5b6000819050919050565b6102bc816102a9565b81146102c757600080fd5b50565b6000813590506102d9816102b3565b92915050565b6000602082840312156102f5576102f46102a4565b5b6000610303848285016102ca565b91505092915050565b60006103178261020a565b9050919050565b6103278161030c565b82525050565b610336816102a9565b82525050565b6000604082019050610351600083018561031e565b61035e602083018461032d565b939250505056fea26469706673582212204dcffc27e57bafe2ea57178cfda4890187c1de45d5651d28414490b7085aa0f364736f6c6343000814003360806040526127106006553480156200001757600080fd5b506040516200246d3803806200246d83398181016040528101906200003d919062000200565b81818160009081620000509190620004d0565b508060019081620000629190620004d0565b5050505050620005b7565b6000604051905090565b600080fd5b600080fd5b600080fd5b600080fd5b6000601f19601f8301169050919050565b7f4e487b7100000000000000000000000000000000000000000000000000000000600052604160045260246000fd5b620000d6826200008b565b810181811067ffffffffffffffff82111715620000f857620000f76200009c565b5b80604052505050565b60006200010d6200006d565b90506200011b8282620000cb565b919050565b600067ffffffffffffffff8211156200013e576200013d6200009c565b5b62000149826200008b565b9050602081019050919050565b60005b838110156200017657808201518184015260208101905062000159565b60008484015250505050565b600062000199620001938462000120565b62000101565b905082815260208101848484011115620001b857620001b762000086565b5b620001c584828562000156565b509392505050565b600082601f830112620001e557620001e462000081565b5b8151620001f784826020860162000182565b91505092915050565b600080604083850312156200021a576200021962000077565b5b600083015167ffffffffffffffff8111156200023b576200023a6200007c565b5b6200024985828601620001cd565b925050602083015167ffffffffffffffff8111156200026d576200026c6200007c565b5b6200027b85828601620001cd565b9150509250929050565b600081519050919050565b7f4e487b7100000000000000000000000000000000000000000000000000000000600052602260045260246000fd5b60006002820490506001821680620002d857607f821691505b602082108103620002ee57620002ed62000290565b5b50919050565b60008190508160005260206000209050919050565b60006020601f8301049050919050565b600082821b905092915050565b600060088302620003587fffffffffffffffffffffffffffffffffffffffffffffffffffffffffffffffff8262000319565b62000364868362000319565b95508019841693508086168417925050509392505050565b6000819050919050565b6000819050919050565b6000620003b1620003ab620003a5846200037c565b62000386565b6200037c565b9050919050565b6000819050919050565b620003cd8362000390565b620003e5620003dc82620003b8565b84845462000326565b825550505050565b600090565b620003fc620003ed565b62000409818484620003c2565b505050565b5b81811015620004315762000425600082620003f2565b6001810190506200040f565b5050565b601f82111562000480576200044a81620002f4565b620004558462000309565b8101602085101562000465578190505b6200047d620004748562000309565b8301826200040e565b50505b505050565b600082821c905092915050565b6000620004a56000198460080262000485565b1980831691505092915050565b6000620004c0838362000492565b9150826002028217905092915050565b620004db8262000285565b67ffffffffffffffff811115620004f757620004f66200009c565b5b620005038254620002bf565b6200051082828562000435565b600060209050601f83116001811462000548576000841562000533578287015190505b6200053f8582620004b2565b865550620005af565b601f1984166200055886620002f4565b60005b8281101562000582578489015182556001820191506020850194506020810190506200055b565b86831015620005a257848901516200059e601f89168262000492565b8355505b6001600288020188555050505b505050505050565b611ea680620005c76000396000f3fe608060405234801561001057600080fd5b50600436106100f55760003560e01c80636352211e11610097578063b88d4fde11610066578063b88d4fde14610282578063bb8a16bd1461029e578063c87b56dd146102bc578063e985e9c5146102ec576100f5565b80636352211e146101e857806370a082311461021857806395d89b4114610248578063a22cb46514610266576100f5565b8063095ea7b3116100d3578063095ea7b31461017857806323b872dd1461019457806340c10f19146101b057806342842e0e146101cc576100f5565b806301ffc9a7146100fa57806306fdde031461012a578063081812fc14610148575b600080fd5b610114600480360381019061010f9190611684565b61031c565b60405161012191906116cc565b60405180910390f35b6101326103fe565b60405161013f9190611777565b60405180910390f35b610162600480360381019061015d91906117cf565b610490565b60405161016f919061183d565b60405180910390f35b610192600480360381019061018d9190611884565b6104ac565b005b6101ae60048036038101906101a991906118c4565b6104c2565b005b6101ca60048036038101906101c59190611884565b6105c4565b005b6101e660048036038101906101e191906118c4565b610623565b005b61020260048036038101906101fd91906117cf565b610643565b60405161020f919061183d565b60405180910390f35b610232600480360381019061022d9190611917565b610655565b60405161023f9190611953565b60405180910390f35b61025061070f565b60405161025d9190611777565b60405180910390f35b610280600480360381019061027b919061199a565b6107a1565b005b61029c60048036038101906102979190611b0f565b6107b7565b005b6102a66107d4565b6040516102b39190611953565b60405180910390f35b6102d660048036038101906102d191906117cf565b6107da565b6040516102e39190611777565b60405180910390f35b61030660048036038101906103019190611b92565b610843565b60405161031391906116cc565b60405180910390f35b60007f80ac58cd000000000000000000000000000000000000000000000000000000007bffffffffffffffffffffffffffffffffffffffffffffffffffffffff1916827bffffffffffffffffffffffffffffffffffffffffffffffffffffffff191614806103e757507f5b5e139f000000000000000000000000000000000000000000000000000000007bffffffffffffffffffffffffffffffffffffffffffffffffffffffff1916827bffffffffffffffffffffffffffffffffffffffffffffffffffffffff1916145b806103f757506103f6826108d7565b5b9050919050565b60606000805461040d90611c01565b80601f016020809104026020016040519081016040528092919081815260200182805461043990611c01565b80156104865780601f1061045b57610100808354040283529160200191610486565b820191906000526020600020905b81548152906001019060200180831161046957829003601f168201915b5050505050905090565b600061049b82610941565b506104a5826109c9565b9050919050565b6104be82826104b9610a06565b610a0e565b5050565b600073ffffffffffffffffffffffffffffffffffffffff168273ffffffffffffffffffffffffffffffffffffffff16036105345760006040517f64a0ae9200000000000000000000000000000000000000000000000000000000815260040161052b919061183d565b60405180910390fd5b60006105488383610543610a06565b610a20565b90508373ffffffffffffffffffffffffffffffffffffffff168173ffffffffffffffffffffffffffffffffffffffff16146105be578382826040517f64283d7b0000000000000000000000000000000000000000000000000000000081526004016105b593929190611c32565b60405180910390fd5b50505050565b600081101580156105d6575060065481105b610615576040517f08c379a000000000000000000000000000000000000000000000000000000000815260040161060c90611cb5565b60405180910390fd5b61061f8282610c3a565b5050565b61063e838383604051806020016040528060008152506107b7565b505050565b600061064e82610941565b9050919050565b60008073ffffffffffffffffffffffffffffffffffffffff168273ffffffffffffffffffffffffffffffffffffffff16036106c85760006040517f89c62b640000000000000000000000000000000000000000000000000000000081526004016106bf919061183d565b60405180910390fd5b600360008373ffffffffffffffffffffffffffffffffffffffff1673ffffffffffffffffffffffffffffffffffffffff168152602001908152602001600020549050919050565b60606001805461071e90611c01565b80601f016020809104026020016040519081016040528092919081815260200182805461074a90611c01565b80156107975780601f1061076c57610100808354040283529160200191610797565b820191906000526020600020905b81548152906001019060200180831161077a57829003601f168201915b5050505050905090565b6107b36107ac610a06565b8383610d33565b5050565b6107c28484846104c2565b6107ce84848484610ea2565b50505050565b60065481565b60606107e582610941565b5060006107f0611059565b90506000815111610810576040518060200160405280600081525061083b565b8061081a84611070565b60405160200161082b929190611d11565b6040516020818303038152906040525b915050919050565b6000600560008473ffffffffffffffffffffffffffffffffffffffff1673ffffffffffffffffffffffffffffffffffffffff16815260200190815260200160002060008373ffffffffffffffffffffffffffffffffffffffff1673ffffffffffffffffffffffffffffffffffffffff16815260200190815260200160002060009054906101000a900460ff16905092915050565b60007f01ffc9a7000000000000000000000000000000000000000000000000000000007bffffffffffffffffffffffffffffffffffffffffffffffffffffffff1916827bffffffffffffffffffffffffffffffffffffffffffffffffffffffff1916149050919050565b60008061094d8361113e565b9050600073ffffffffffffffffffffffffffffffffffffffff168173ffffffffffffffffffffffffffffffffffffffff16036109c057826040517f7e2732890000000000000000000000000000000000000000000000000000000081526004016109b79190611953565b60405180910390fd5b80915050919050565b60006004600083815260200190815260200160002060009054906101000a900473ffffffffffffffffffffffffffffffffffffffff169050919050565b600033905090565b610a1b838383600161117b565b505050565b600080610a2c8461113e565b9050600073ffffffffffffffffffffffffffffffffffffffff168373ffffffffffffffffffffffffffffffffffffffff1614610a6e57610a6d818486611340565b5b600073ffffffffffffffffffffffffffffffffffffffff168173ffffffffffffffffffffffffffffffffffffffff1614610aff57610ab060008560008061117b565b6001600360008373ffffffffffffffffffffffffffffffffffffffff1673ffffffffffffffffffffffffffffffffffffffff168152602001908152602001600020600082825403925050819055505b600073ffffffffffffffffffffffffffffffffffffffff168573ffffffffffffffffffffffffffffffffffffffff1614610b82576001600360008773ffffffffffffffffffffffffffffffffffffffff1673ffffffffffffffffffffffffffffffffffffffff168152602001908152602001600020600082825401925050819055505b846002600086815260200190815260200160002060006101000a81548173ffffffffffffffffffffffffffffffffffffffff021916908373ffffffffffffffffffffffffffffffffffffffff160217905550838573ffffffffffffffffffffffffffffffffffffffff168273ffffffffffffffffffffffffffffffffffffffff167fddf252ad1be2c89b69c2b068fc378daa952ba7f163c4a11628f55a4df523b3ef60405160405180910390a4809150509392505050565b600073ffffffffffffffffffffffffffffffffffffffff168273ffffffffffffffffffffffffffffffffffffffff1603610cac5760006040517f64a0ae92000000000000000000000000000000000000000000000000000000008152600401610ca3919061183d565b60405180910390fd5b6000610cba83836000610a20565b9050600073ffffffffffffffffffffffffffffffffffffffff168173ffffffffffffffffffffffffffffffffffffffff1614610d2e5760006040517f73c6ac6e000000000000000000000000000000000000000000000000000000008152600401610d25919061183d565b60405180910390fd5b505050565b600073ffffffffffffffffffffffffffffffffffffffff168273ffffffffffffffffffffffffffffffffffffffff1603610da457816040517f5b08ba18000000000000000000000000000000000000000000000000000000008152600401610d9b919061183d565b60405180910390fd5b80600560008573ffffffffffffffffffffffffffffffffffffffff1673ffffffffffffffffffffffffffffffffffffffff16815260200190815260200160002060008473ffffffffffffffffffffffffffffffffffffffff1673ffffffffffffffffffffffffffffffffffffffff16815260200190815260200160002060006101000a81548160ff0219169083151502179055508173ffffffffffffffffffffffffffffffffffffffff168373ffffffffffffffffffffffffffffffffffffffff167f17307eab39ab6107e8899845ad3d59bd9653f200f220920489ca2b5937696c3183604051610e9591906116cc565b60405180910390a3505050565b60008373ffffffffffffffffffffffffffffffffffffffff163b1115611053578273ffffffffffffffffffffffffffffffffffffffff1663150b7a02610ee6610a06565b8685856040518563ffffffff1660e01b8152600401610f089493929190611d8a565b6020604051808303816000875af1925050508015610f4457506040513d601f19601f82011682018060405250810190610f419190611deb565b60015b610fc8573d8060008114610f74576040519150601f19603f3d011682016040523d82523d6000602084013e610f79565b606091505b506000815103610fc057836040517f64a0ae92000000000000000000000000000000000000000000000000000000008152600401610fb7919061183d565b60405180910390fd5b805181602001fd5b63150b7a0260e01b7bffffffffffffffffffffffffffffffffffffffffffffffffffffffff1916817bffffffffffffffffffffffffffffffffffffffffffffffffffffffff19161461105157836040517f64a0ae92000000000000000000000000000000000000000000000000000000008152600401611048919061183d565b60405180910390fd5b505b50505050565b606060405180602001604052806000815250905090565b60606000600161107f84611404565b01905060008167ffffffffffffffff81111561109e5761109d6119e4565b5b6040519080825280601f01601f1916602001820160405280156110d05781602001600182028036833780820191505090505b509050600082602001820190505b600115611133578080600190039150507f3031323334353637383961626364656600000000000000000000000000000000600a86061a8153600a858161112757611126611e18565b5b049450600085036110de575b819350505050919050565b60006002600083815260200190815260200160002060009054906101000a900473ffffffffffffffffffffffffffffffffffffffff169050919050565b80806111b45750600073ffffffffffffffffffffffffffffffffffffffff168273ffffffffffffffffffffffffffffffffffffffff1614155b156112e85760006111c484610941565b9050600073ffffffffffffffffffffffffffffffffffffffff168373ffffffffffffffffffffffffffffffffffffffff161415801561122f57508273ffffffffffffffffffffffffffffffffffffffff168173ffffffffffffffffffffffffffffffffffffffff1614155b801561124257506112408184610843565b155b1561128457826040517fa9fbf51f00000000000000000000000000000000000000000000000000000000815260040161127b919061183d565b60405180910390fd5b81156112e657838573ffffffffffffffffffffffffffffffffffffffff168273ffffffffffffffffffffffffffffffffffffffff167f8c5be1e5ebec7d5bd14f71427d1e84f3dd0314c0f7b2291e5b200ac8c7c3b92560405160405180910390a45b505b836004600085815260200190815260200160002060006101000a81548173ffffffffffffffffffffffffffffffffffffffff021916908373ffffffffffffffffffffffffffffffffffffffff16021790555050505050565b61134b838383611557565b6113ff57600073ffffffffffffffffffffffffffffffffffffffff168373ffffffffffffffffffffffffffffffffffffffff16036113c057806040517f7e2732890000000000000000000000000000000000000000000000000000000081526004016113b79190611953565b60405180910390fd5b81816040517f177e802f0000000000000000000000000000000000000000000000000000000081526004016113f6929190611e47565b60405180910390fd5b505050565b600080600090507a184f03e93ff9f4daa797ed6e38ed64bf6a1f0100000000000000008310611462577a184f03e93ff9f4daa797ed6e38ed64bf6a1f010000000000000000838161145857611457611e18565b5b0492506040810190505b6d04ee2d6d415b85acef8100000000831061149f576d04ee2d6d415b85acef8100000000838161149557611494611e18565b5b0492506020810190505b662386f26fc1000083106114ce57662386f26fc1000083816114c4576114c3611e18565b5b0492506010810190505b6305f5e10083106114f7576305f5e10083816114ed576114ec611e18565b5b0492506008810190505b612710831061151c57612710838161151257611511611e18565b5b0492506004810190505b6064831061153f576064838161153557611534611e18565b5b0492506002810190505b600a831061154e576001810190505b80915050919050565b60008073ffffffffffffffffffffffffffffffffffffffff168373ffffffffffffffffffffffffffffffffffffffff161415801561160f57508273ffffffffffffffffffffffffffffffffffffffff168473ffffffffffffffffffffffffffffffffffffffff1614806115d057506115cf8484610843565b5b8061160e57508273ffffffffffffffffffffffffffffffffffffffff166115f6836109c9565b73ffffffffffffffffffffffffffffffffffffffff16145b5b90509392505050565b6000604051905090565b600080fd5b600080fd5b60007fffffffff0000000000000000000000000000000000000000000000000000000082169050919050565b6116618161162c565b811461166c57600080fd5b50565b60008135905061167e81611658565b92915050565b60006020828403121561169a57611699611622565b5b60006116a88482850161166f565b91505092915050565b60008115159050919050565b6116c6816116b1565b82525050565b60006020820190506116e160008301846116bd565b92915050565b600081519050919050565b600082825260208201905092915050565b60005b83811015611721578082015181840152602081019050611706565b60008484015250505050565b6000601f19601f8301169050919050565b6000611749826116e7565b61175381856116f2565b9350611763818560208601611703565b61176c8161172d565b840191505092915050565b60006020820190508181036000830152611791818461173e565b905092915050565b6000819050919050565b6117ac81611799565b81146117b757600080fd5b50565b6000813590506117c9816117a3565b92915050565b6000602082840312156117e5576117e4611622565b5b60006117f3848285016117ba565b91505092915050565b600073ffffffffffffffffffffffffffffffffffffffff82169050919050565b6000611827826117fc565b9050919050565b6118378161181c565b82525050565b6000602082019050611852600083018461182e565b92915050565b6118618161181c565b811461186c57600080fd5b50565b60008135905061187e81611858565b92915050565b6000806040838503121561189b5761189a611622565b5b60006118a98582860161186f565b92505060206118ba858286016117ba565b9150509250929050565b6000806000606084860312156118dd576118dc611622565b5b60006118eb8682870161186f565b93505060206118fc8682870161186f565b925050604061190d868287016117ba565b9150509250925092565b60006020828403121561192d5761192c611622565b5b600061193b8482850161186f565b91505092915050565b61194d81611799565b82525050565b60006020820190506119686000830184611944565b92915050565b611977816116b1565b811461198257600080fd5b50565b6000813590506119948161196e565b92915050565b600080604083850312156119b1576119b0611622565b5b60006119bf8582860161186f565b92505060206119d085828601611985565b9150509250929050565b600080fd5b600080fd5b7f4e487b7100000000000000000000000000000000000000000000000000000000600052604160045260246000fd5b611a1c8261172d565b810181811067ffffffffffffffff82111715611a3b57611a3a6119e4565b5b80604052505050565b6000611a4e611618565b9050611a5a8282611a13565b919050565b600067ffffffffffffffff821115611a7a57611a796119e4565b5b611a838261172d565b9050602081019050919050565b82818337600083830152505050565b6000611ab2611aad84611a5f565b611a44565b905082815260208101848484011115611ace57611acd6119df565b5b611ad9848285611a90565b509392505050565b600082601f830112611af657611af56119da565b5b8135611b06848260208601611a9f565b91505092915050565b60008060008060808587031215611b2957611b28611622565b5b6000611b378782880161186f565b9450506020611b488782880161186f565b9350506040611b59878288016117ba565b925050606085013567ffffffffffffffff811115611b7a57611b79611627565b5b611b8687828801611ae1565b91505092959194509250565b60008060408385031215611ba957611ba8611622565b5b6000611bb78582860161186f565b9250506020611bc88582860161186f565b9150509250929050565b7f4e487b7100000000000000000000000000000000000000000000000000000000600052602260045260246000fd5b60006002820490506001821680611c1957607f821691505b602082108103611c2c57611c2b611bd2565b5b50919050565b6000606082019050611c47600083018661182e565b611c546020830185611944565b611c61604083018461182e565b949350505050565b7f746f6b656e4964206f7574206f662072616e6765000000000000000000000000600082015250565b6000611c9f6014836116f2565b9150611caa82611c69565b602082019050919050565b60006020820190508181036000830152611cce81611c92565b9050919050565b600081905092915050565b6000611ceb826116e7565b611cf58185611cd5565b9350611d05818560208601611703565b80840191505092915050565b6000611d1d8285611ce0565b9150611d298284611ce0565b91508190509392505050565b600081519050919050565b600082825260208201905092915050565b6000611d5c82611d35565b611d668185611d40565b9350611d76818560208601611703565b611d7f8161172d565b840191505092915050565b6000608082019050611d9f600083018761182e565b611dac602083018661182e565b611db96040830185611944565b8181036060830152611dcb8184611d51565b905095945050505050565b600081519050611de581611658565b92915050565b600060208284031215611e0157611e00611622565b5b6000611e0f84828501611dd6565b91505092915050565b7f4e487b7100000000000000000000000000000000000000000000000000000000600052601260045260246000fd5b6000604082019050611e5c600083018561182e565b611e696020830184611944565b939250505056fea2646970667358221220663584bdef832cd852411e036c28c3deb5c75a5e739f663b17dd600cc8deef3964736f6c63430008140033",
  "linkReferences": {},
  "deployedLinkReferences": {}
}