{
  "_format": "hh-sol-artifact-1",
  "contractName": "MyERC721",
  "sourceName": "contracts/MyERC721.sol",
  "abi": [
    {
      "inputs": [
        {
          "internalType": "string",
          "name": "name_",
          "type": "string"
        },
        {
          "internalType": "string",
          "name": "symbol_",
          "type": "string"
        }
      ],
      "stateMutability": "nonpayable",
      "type": "constructor"
    },
    {
      "inputs": [
        {
          "internalType": "address",
          "name": "sender",
          "type": "address"
        },
        {
          "internalType": "uint256",
          "name": "tokenId",
          "type": "uint256"
        },
        {
          "internalType": "address",
          "name": "owner",
          "type": "address"
        }
      ],
      "name": "ERC721IncorrectOwner",
      "type": "error"
    },
    {
      "inputs": [
        {
          "internalType": "address",
          "name": "operator",
          "type": "address"
        },
        {
          "internalType": "uint256",
          "name": "tokenId",
          "type": "uint256"
        }
      ],
      "name": "ERC721InsufficientApproval",
      "type": "error"
    },
    {
      "inputs": [
        {
          "internalType": "address",
          "name": "approver",
          "type": "address"
        }
      ],
      "name": "ERC721InvalidApprover",
      "type": "error"
    },
    {
      "inputs": [
        {
          "internalType": "address",
          "name": "operator",
          "type": "address"
        }
      ],
      "name": "ERC721InvalidOperator",
      "type": "error"
    },
    {
      "inputs": [
        {
          "internalType": "address",
          "name": "owner",
          "type": "address"
        }
      ],
      "name": "ERC721InvalidOwner",
      "type": "error"
    },
    {
      "inputs": [
        {
          "internalType": "address",
          "name": "receiver",
          "type": "address"
        }
      ],
      "name": "ERC721InvalidReceiver",
      "type": "error"
    },
    {
      "inputs": [
        {
          "internalType": "address",
          "name": "sender",
          "type": "address"
        }
      ],
      "name": "ERC721InvalidSender",
      "type": "error"
    },
    {
      "inputs": [
        {
          "internalType": "uint256",
          "name": "tokenId",
          "type": "uint256"
        }
      ],
      "name": "ERC721NonexistentToken",
      "type": "error"
    },
    {
      "anonymous": false,
      "inputs": [
        {
          "indexed": true,
          "internalType": "address",
          "name": "owner",
          "type": "address"
        },
        {
          "indexed": true,
          "internalType": "address",
          "name": "approved",
          "type": "address"
        },
        {
          "indexed": true,
          "internalType": "uint256",
          "name": "tokenId",
          "type": "uint256"
        }
      ],
      "name": "Approval",
      "type": "event"
    },
    {
      "anonymous": false,
      "inputs": [
        {
          "indexed": true,
          "internalType": "address",
          "name": "owner",
          "type": "address"
        },
        {
          "indexed": true,
          "internalType": "address",
          "name": "operator",
          "type": "address"
        },
        {
          "indexed": false,
          "internalType": "bool",
          "name": "approved",
          "type": "bool"
        }
      ],
      "name": "ApprovalForAll",
      "type": "event"
    },
    {
      "anonymous": false,
      "inputs": [
        {
          "indexed": true,
          "internalType": "address",
          "name": "from",
          "type": "address"
        },
        {
          "indexed": true,
          "internalType": "address",
          "name": "to",
          "type": "address"
        },
        {
          "indexed": true,
          "internalType": "uint256",
          "name": "tokenId",
          "type": "uint256"
        }
      ],
      "name": "Transfer",
      "type": "event"
    },
    {
      "inputs": [
        {
          "internalType": "address",
          "name": "",
          "type": "address"
        },
        {
          "internalType": "uint256",
          "name": "",
          "type": "uint256"
        }
      ],
      "name": "Houses",
      "outputs": [
        {
          "internalType": "uint256",
          "name": "",
          "type": "uint256"
        }
      ],
      "stateMutability": "view",
      "type": "function"
    },
    {
      "inputs": [],
      "name": "MAX_NTF",
      "outputs": [
        {
          "internalType": "uint256",
          "name": "",
          "type": "uint256"
        }
      ],
      "stateMutability": "view",
      "type": "function"
    },
    {
      "inputs": [],
      "name": "TOKEN_ID",
      "outputs": [
        {
          "internalType": "uint256",
          "name": "",
          "type": "uint256"
        }
      ],
      "stateMutability": "view",
      "type": "function"
    },
    {
      "inputs": [],
      "name": "airdrop",
      "outputs": [],
      "stateMutability": "nonpayable",
      "type": "function"
    },
    {
      "inputs": [
        {
          "internalType": "address",
          "name": "to",
          "type": "address"
        },
        {
          "internalType": "uint256",
          "name": "tokenId",
          "type": "uint256"
        }
      ],
      "name": "approve",
      "outputs": [],
      "stateMutability": "nonpayable",
      "type": "function"
    },
    {
      "inputs": [
        {
          "internalType": "address",
          "name": "owner",
          "type": "address"
        }
      ],
      "name": "balanceOf",
      "outputs": [
        {
          "internalType": "uint256",
          "name": "",
          "type": "uint256"
        }
      ],
      "stateMutability": "view",
      "type": "function"
    },
    {
      "inputs": [
        {
          "internalType": "uint256",
          "name": "tokenId",
          "type": "uint256"
        }
      ],
      "name": "getApproved",
      "outputs": [
        {
          "internalType": "address",
          "name": "",
          "type": "address"
        }
      ],
      "stateMutability": "view",
      "type": "function"
    },
    {
      "inputs": [],
      "name": "getHouses",
      "outputs": [
        {
          "internalType": "uint256[]",
          "name": "",
          "type": "uint256[]"
        }
      ],
      "stateMutability": "view",
      "type": "function"
    },
    {
      "inputs": [],
      "name": "getTotalid",
      "outputs": [
        {
          "internalType": "uint256",
          "name": "",
          "type": "uint256"
        }
      ],
      "stateMutability": "view",
      "type": "function"
    },
    {
      "inputs": [
        {
          "internalType": "address",
          "name": "owner",
          "type": "address"
        },
        {
          "internalType": "address",
          "name": "operator",
          "type": "address"
        }
      ],
      "name": "isApprovedForAll",
      "outputs": [
        {
          "internalType": "bool",
          "name": "",
          "type": "bool"
        }
      ],
      "stateMutability": "view",
      "type": "function"
    },
    {
      "inputs": [
        {
          "internalType": "address",
          "name": "to",
          "type": "address"
        }
      ],
      "name": "mint",
      "outputs": [],
      "stateMutability": "nonpayable",
      "type": "function"
    },
    {
      "inputs": [],
      "name": "name",
      "outputs": [
        {
          "internalType": "string",
          "name": "",
          "type": "string"
        }
      ],
      "stateMutability": "view",
      "type": "function"
    },
    {
      "inputs": [
        {
          "internalType": "uint256",
          "name": "tokenId",
          "type": "uint256"
        }
      ],
      "name": "ownerOf",
      "outputs": [
        {
          "internalType": "address",
          "name": "",
          "type": "address"
        }
      ],
      "stateMutability": "view",
      "type": "function"
    },
    {
      "inputs": [
        {
          "internalType": "address",
          "name": "from",
          "type": "address"
        },
        {
          "internalType": "address",
          "name": "to",
          "type": "address"
        },
        {
          "internalType": "uint256",
          "name": "tokenId",
          "type": "uint256"
        }
      ],
      "name": "safeTransferFrom",
      "outputs": [],
      "stateMutability": "nonpayable",
      "type": "function"
    },
    {
      "inputs": [
        {
          "internalType": "address",
          "name": "from",
          "type": "address"
        },
        {
          "internalType": "address",
          "name": "to",
          "type": "address"
        },
        {
          "internalType": "uint256",
          "name": "tokenId",
          "type": "uint256"
        },
        {
          "internalType": "bytes",
          "name": "data",
          "type": "bytes"
        }
      ],
      "name": "safeTransferFrom",
      "outputs": [],
      "stateMutability": "nonpayable",
      "type": "function"
    },
    {
      "inputs": [
        {
          "internalType": "address",
          "name": "operator",
          "type": "address"
        },
        {
          "internalType": "bool",
          "name": "approved",
          "type": "bool"
        }
      ],
      "name": "setApprovalForAll",
      "outputs": [],
      "stateMutability": "nonpayable",
      "type": "function"
    },
    {
      "inputs": [
        {
          "internalType": "bytes4",
          "name": "interfaceId",
          "type": "bytes4"
        }
      ],
      "name": "supportsInterface",
      "outputs": [
        {
          "internalType": "bool",
          "name": "",
          "type": "bool"
        }
      ],
      "stateMutability": "view",
      "type": "function"
    },
    {
      "inputs": [],
      "name": "symbol",
      "outputs": [
        {
          "internalType": "string",
          "name": "",
          "type": "string"
        }
      ],
      "stateMutability": "view",
      "type": "function"
    },
    {
      "inputs": [
        {
          "internalType": "uint256",
          "name": "tokenId",
          "type": "uint256"
        }
      ],
      "name": "tokenURI",
      "outputs": [
        {
          "internalType": "string",
          "name": "",
          "type": "string"
        }
      ],
      "stateMutability": "view",
      "type": "function"
    },
    {
      "inputs": [
        {
          "internalType": "address",
          "name": "from",
          "type": "address"
        },
        {
          "internalType": "address",
          "name": "to",
          "type": "address"
        },
        {
          "internalType": "uint256",
          "name": "tokenId",
          "type": "uint256"
        }
      ],
      "name": "transferFrom",
      "outputs": [],
      "stateMutability": "nonpayable",
      "type": "function"
    }
  ],
  "bytecode": "0x608060405260006006553480156200001657600080fd5b50604051620027eb380380620027eb83398181016040528101906200003c9190620001ff565b818181600090816200004f9190620004cf565b508060019081620000619190620004cf565b5050505050620005b6565b6000604051905090565b600080fd5b600080fd5b600080fd5b600080fd5b6000601f19601f8301169050919050565b7f4e487b7100000000000000000000000000000000000000000000000000000000600052604160045260246000fd5b620000d5826200008a565b810181811067ffffffffffffffff82111715620000f757620000f66200009b565b5b80604052505050565b60006200010c6200006c565b90506200011a8282620000ca565b919050565b600067ffffffffffffffff8211156200013d576200013c6200009b565b5b62000148826200008a565b9050602081019050919050565b60005b838110156200017557808201518184015260208101905062000158565b60008484015250505050565b60006200019862000192846200011f565b62000100565b905082815260208101848484011115620001b757620001b662000085565b5b620001c484828562000155565b509392505050565b600082601f830112620001e457620001e362000080565b5b8151620001f684826020860162000181565b91505092915050565b6000806040838503121562000219576200021862000076565b5b600083015167ffffffffffffffff8111156200023a57620002396200007b565b5b6200024885828601620001cc565b925050602083015167ffffffffffffffff8111156200026c576200026b6200007b565b5b6200027a85828601620001cc565b9150509250929050565b600081519050919050565b7f4e487b7100000000000000000000000000000000000000000000000000000000600052602260045260246000fd5b60006002820490506001821680620002d757607f821691505b602082108103620002ed57620002ec6200028f565b5b50919050565b60008190508160005260206000209050919050565b60006020601f8301049050919050565b600082821b905092915050565b600060088302620003577fffffffffffffffffffffffffffffffffffffffffffffffffffffffffffffffff8262000318565b62000363868362000318565b95508019841693508086168417925050509392505050565b6000819050919050565b6000819050919050565b6000620003b0620003aa620003a4846200037b565b62000385565b6200037b565b9050919050565b6000819050919050565b620003cc836200038f565b620003e4620003db82620003b7565b84845462000325565b825550505050565b600090565b620003fb620003ec565b62000408818484620003c1565b505050565b5b81811015620004305762000424600082620003f1565b6001810190506200040e565b5050565b601f8211156200047f576200044981620002f3565b620004548462000308565b8101602085101562000464578190505b6200047c620004738562000308565b8301826200040d565b50505b505050565b600082821c905092915050565b6000620004a46000198460080262000484565b1980831691505092915050565b6000620004bf838362000491565b9150826002028217905092915050565b620004da8262000284565b67ffffffffffffffff811115620004f657620004f56200009b565b5b620005028254620002be565b6200050f82828562000434565b600060209050601f83116001811462000547576000841562000532578287015190505b6200053e8582620004b1565b865550620005ae565b601f1984166200055786620002f3565b60005b8281101562000581578489015182556001820191506020850194506020810190506200055a565b86831015620005a157848901516200059d601f89168262000491565b8355505b6001600288020188555050505b505050505050565b61222580620005c66000396000f3fe608060405234801561001057600080fd5b506004361061012c5760003560e01c806370a08231116100ad578063b88d4fde11610071578063b88d4fde1461032f578063c87b56dd1461034b578063e6bc39da1461037b578063e985e9c514610399578063fd5f33ec146103c95761012c565b806370a082311461028957806389a89002146102b95780638b11a71e146102d757806395d89b41146102f5578063a22cb465146103135761012c565b80633884d635116100f45780633884d635146101e757806342842e0e146101f157806345d37cbb1461020d5780636352211e1461023d5780636a6278421461026d5761012c565b806301ffc9a71461013157806306fdde0314610161578063081812fc1461017f578063095ea7b3146101af57806323b872dd146101cb575b600080fd5b61014b600480360381019061014691906118ac565b6103e7565b60405161015891906118f4565b60405180910390f35b6101696104c9565b604051610176919061199f565b60405180910390f35b610199600480360381019061019491906119f7565b61055b565b6040516101a69190611a65565b60405180910390f35b6101c960048036038101906101c49190611aac565b610577565b005b6101e560048036038101906101e09190611aec565b61058d565b005b6101ef61068f565b005b61020b60048036038101906102069190611aec565b610691565b005b61022760048036038101906102229190611aac565b6106b1565b6040516102349190611b4e565b60405180910390f35b610257600480360381019061025291906119f7565b6106e2565b6040516102649190611a65565b60405180910390f35b61028760048036038101906102829190611b69565b6106f4565b005b6102a3600480360381019061029e9190611b69565b6107d8565b6040516102b09190611b4e565b60405180910390f35b6102c1610892565b6040516102ce9190611b4e565b60405180910390f35b6102df610898565b6040516102ec9190611b4e565b60405180910390f35b6102fd6108a2565b60405161030a919061199f565b60405180910390f35b61032d60048036038101906103289190611bc2565b610934565b005b61034960048036038101906103449190611d37565b61094a565b005b610365600480360381019061036091906119f7565b610967565b604051610372919061199f565b60405180910390f35b6103836109d0565b6040516103909190611b4e565b60405180910390f35b6103b360048036038101906103ae9190611dba565b6109d6565b6040516103c091906118f4565b60405180910390f35b6103d1610a6a565b6040516103de9190611eb8565b60405180910390f35b60007f80ac58cd000000000000000000000000000000000000000000000000000000007bffffffffffffffffffffffffffffffffffffffffffffffffffffffff1916827bffffffffffffffffffffffffffffffffffffffffffffffffffffffff191614806104b257507f5b5e139f000000000000000000000000000000000000000000000000000000007bffffffffffffffffffffffffffffffffffffffffffffffffffffffff1916827bffffffffffffffffffffffffffffffffffffffffffffffffffffffff1916145b806104c257506104c182610aff565b5b9050919050565b6060600080546104d890611f09565b80601f016020809104026020016040519081016040528092919081815260200182805461050490611f09565b80156105515780601f1061052657610100808354040283529160200191610551565b820191906000526020600020905b81548152906001019060200180831161053457829003601f168201915b5050505050905090565b600061056682610b69565b5061057082610bf1565b9050919050565b6105898282610584610c2e565b610c36565b5050565b600073ffffffffffffffffffffffffffffffffffffffff168273ffffffffffffffffffffffffffffffffffffffff16036105ff5760006040517f64a0ae920000000000000000000000000000000000000000000000000000000081526004016105f69190611a65565b60405180910390fd5b6000610613838361060e610c2e565b610c48565b90508373ffffffffffffffffffffffffffffffffffffffff168173ffffffffffffffffffffffffffffffffffffffff1614610689578382826040517f64283d7b00000000000000000000000000000000000000000000000000000000815260040161068093929190611f3a565b60405180910390fd5b50505050565b565b6106ac8383836040518060200160405280600081525061094a565b505050565b600760205281600052604060002081815481106106cd57600080fd5b90600052602060002001600091509150505481565b60006106ed82610b69565b9050919050565b60006006541015801561070a5750612710600654105b610749576040517f08c379a000000000000000000000000000000000000000000000000000000000815260040161074090611fbd565b60405180910390fd5b61075581600654610e62565b600760008273ffffffffffffffffffffffffffffffffffffffff1673ffffffffffffffffffffffffffffffffffffffff1681526020019081526020016000206006549080600181540180825580915050600190039060005260206000200160009091909190915055600660008154809291906107d09061200c565b919050555050565b60008073ffffffffffffffffffffffffffffffffffffffff168273ffffffffffffffffffffffffffffffffffffffff160361084b5760006040517f89c62b640000000000000000000000000000000000000000000000000000000081526004016108429190611a65565b60405180910390fd5b600360008373ffffffffffffffffffffffffffffffffffffffff1673ffffffffffffffffffffffffffffffffffffffff168152602001908152602001600020549050919050565b60065481565b6000600654905090565b6060600180546108b190611f09565b80601f01602080910402602001604051908101604052809291908181526020018280546108dd90611f09565b801561092a5780601f106108ff5761010080835404028352916020019161092a565b820191906000526020600020905b81548152906001019060200180831161090d57829003601f168201915b5050505050905090565b61094661093f610c2e565b8383610f5b565b5050565b61095584848461058d565b610961848484846110ca565b50505050565b606061097282610b69565b50600061097d611281565b9050600081511161099d57604051806020016040528060008152506109c8565b806109a784611298565b6040516020016109b8929190612090565b6040516020818303038152906040525b915050919050565b61271081565b6000600560008473ffffffffffffffffffffffffffffffffffffffff1673ffffffffffffffffffffffffffffffffffffffff16815260200190815260200160002060008373ffffffffffffffffffffffffffffffffffffffff1673ffffffffffffffffffffffffffffffffffffffff16815260200190815260200160002060009054906101000a900460ff16905092915050565b6060600760003373ffffffffffffffffffffffffffffffffffffffff1673ffffffffffffffffffffffffffffffffffffffff168152602001908152602001600020805480602002602001604051908101604052809291908181526020018280548015610af557602002820191906000526020600020905b815481526020019060010190808311610ae1575b5050505050905090565b60007f01ffc9a7000000000000000000000000000000000000000000000000000000007bffffffffffffffffffffffffffffffffffffffffffffffffffffffff1916827bffffffffffffffffffffffffffffffffffffffffffffffffffffffff1916149050919050565b600080610b7583611366565b9050600073ffffffffffffffffffffffffffffffffffffffff168173ffffffffffffffffffffffffffffffffffffffff1603610be857826040517f7e273289000000000000000000000000000000000000000000000000000000008152600401610bdf9190611b4e565b60405180910390fd5b80915050919050565b60006004600083815260200190815260200160002060009054906101000a900473ffffffffffffffffffffffffffffffffffffffff169050919050565b600033905090565b610c4383838360016113a3565b505050565b600080610c5484611366565b9050600073ffffffffffffffffffffffffffffffffffffffff168373ffffffffffffffffffffffffffffffffffffffff1614610c9657610c95818486611568565b5b600073ffffffffffffffffffffffffffffffffffffffff168173ffffffffffffffffffffffffffffffffffffffff1614610d2757610cd86000856000806113a3565b6001600360008373ffffffffffffffffffffffffffffffffffffffff1673ffffffffffffffffffffffffffffffffffffffff168152602001908152602001600020600082825403925050819055505b600073ffffffffffffffffffffffffffffffffffffffff168573ffffffffffffffffffffffffffffffffffffffff1614610daa576001600360008773ffffffffffffffffffffffffffffffffffffffff1673ffffffffffffffffffffffffffffffffffffffff168152602001908152602001600020600082825401925050819055505b846002600086815260200190815260200160002060006101000a81548173ffffffffffffffffffffffffffffffffffffffff021916908373ffffffffffffffffffffffffffffffffffffffff160217905550838573ffffffffffffffffffffffffffffffffffffffff168273ffffffffffffffffffffffffffffffffffffffff167fddf252ad1be2c89b69c2b068fc378daa952ba7f163c4a11628f55a4df523b3ef60405160405180910390a4809150509392505050565b600073ffffffffffffffffffffffffffffffffffffffff168273ffffffffffffffffffffffffffffffffffffffff1603610ed45760006040517f64a0ae92000000000000000000000000000000000000000000000000000000008152600401610ecb9190611a65565b60405180910390fd5b6000610ee283836000610c48565b9050600073ffffffffffffffffffffffffffffffffffffffff168173ffffffffffffffffffffffffffffffffffffffff1614610f565760006040517f73c6ac6e000000000000000000000000000000000000000000000000000000008152600401610f4d9190611a65565b60405180910390fd5b505050565b600073ffffffffffffffffffffffffffffffffffffffff168273ffffffffffffffffffffffffffffffffffffffff1603610fcc57816040517f5b08ba18000000000000000000000000000000000000000000000000000000008152600401610fc39190611a65565b60405180910390fd5b80600560008573ffffffffffffffffffffffffffffffffffffffff1673ffffffffffffffffffffffffffffffffffffffff16815260200190815260200160002060008473ffffffffffffffffffffffffffffffffffffffff1673ffffffffffffffffffffffffffffffffffffffff16815260200190815260200160002060006101000a81548160ff0219169083151502179055508173ffffffffffffffffffffffffffffffffffffffff168373ffffffffffffffffffffffffffffffffffffffff167f17307eab39ab6107e8899845ad3d59bd9653f200f220920489ca2b5937696c31836040516110bd91906118f4565b60405180910390a3505050565b60008373ffffffffffffffffffffffffffffffffffffffff163b111561127b578273ffffffffffffffffffffffffffffffffffffffff1663150b7a0261110e610c2e565b8685856040518563ffffffff1660e01b81526004016111309493929190612109565b6020604051808303816000875af192505050801561116c57506040513d601f19601f82011682018060405250810190611169919061216a565b60015b6111f0573d806000811461119c576040519150601f19603f3d011682016040523d82523d6000602084013e6111a1565b606091505b5060008151036111e857836040517f64a0ae920000000000000000000000000000000000000000000000000000000081526004016111df9190611a65565b60405180910390fd5b805181602001fd5b63150b7a0260e01b7bffffffffffffffffffffffffffffffffffffffffffffffffffffffff1916817bffffffffffffffffffffffffffffffffffffffffffffffffffffffff19161461127957836040517f64a0ae920000000000000000000000000000000000000000000000000000000081526004016112709190611a65565b60405180910390fd5b505b50505050565b606060405180602001604052806000815250905090565b6060600060016112a78461162c565b01905060008167ffffffffffffffff8111156112c6576112c5611c0c565b5b6040519080825280601f01601f1916602001820160405280156112f85781602001600182028036833780820191505090505b509050600082602001820190505b60011561135b578080600190039150507f3031323334353637383961626364656600000000000000000000000000000000600a86061a8153600a858161134f5761134e612197565b5b04945060008503611306575b819350505050919050565b60006002600083815260200190815260200160002060009054906101000a900473ffffffffffffffffffffffffffffffffffffffff169050919050565b80806113dc5750600073ffffffffffffffffffffffffffffffffffffffff168273ffffffffffffffffffffffffffffffffffffffff1614155b156115105760006113ec84610b69565b9050600073ffffffffffffffffffffffffffffffffffffffff168373ffffffffffffffffffffffffffffffffffffffff161415801561145757508273ffffffffffffffffffffffffffffffffffffffff168173ffffffffffffffffffffffffffffffffffffffff1614155b801561146a575061146881846109d6565b155b156114ac57826040517fa9fbf51f0000000000000000000000000000000000000000000000000000000081526004016114a39190611a65565b60405180910390fd5b811561150e57838573ffffffffffffffffffffffffffffffffffffffff168273ffffffffffffffffffffffffffffffffffffffff167f8c5be1e5ebec7d5bd14f71427d1e84f3dd0314c0f7b2291e5b200ac8c7c3b92560405160405180910390a45b505b836004600085815260200190815260200160002060006101000a81548173ffffffffffffffffffffffffffffffffffffffff021916908373ffffffffffffffffffffffffffffffffffffffff16021790555050505050565b61157383838361177f565b61162757600073ffffffffffffffffffffffffffffffffffffffff168373ffffffffffffffffffffffffffffffffffffffff16036115e857806040517f7e2732890000000000000000000000000000000000000000000000000000000081526004016115df9190611b4e565b60405180910390fd5b81816040517f177e802f00000000000000000000000000000000000000000000000000000000815260040161161e9291906121c6565b60405180910390fd5b505050565b600080600090507a184f03e93ff9f4daa797ed6e38ed64bf6a1f010000000000000000831061168a577a184f03e93ff9f4daa797ed6e38ed64bf6a1f01000000000000000083816116805761167f612197565b5b0492506040810190505b6d04ee2d6d415b85acef810000000083106116c7576d04ee2d6d415b85acef810000000083816116bd576116bc612197565b5b0492506020810190505b662386f26fc1000083106116f657662386f26fc1000083816116ec576116eb612197565b5b0492506010810190505b6305f5e100831061171f576305f5e100838161171557611714612197565b5b0492506008810190505b612710831061174457612710838161173a57611739612197565b5b0492506004810190505b60648310611767576064838161175d5761175c612197565b5b0492506002810190505b600a8310611776576001810190505b80915050919050565b60008073ffffffffffffffffffffffffffffffffffffffff168373ffffffffffffffffffffffffffffffffffffffff161415801561183757508273ffffffffffffffffffffffffffffffffffffffff168473ffffffffffffffffffffffffffffffffffffffff1614806117f857506117f784846109d6565b5b8061183657508273ffffffffffffffffffffffffffffffffffffffff1661181e83610bf1565b73ffffffffffffffffffffffffffffffffffffffff16145b5b90509392505050565b6000604051905090565b600080fd5b600080fd5b60007fffffffff0000000000000000000000000000000000000000000000000000000082169050919050565b61188981611854565b811461189457600080fd5b50565b6000813590506118a681611880565b92915050565b6000602082840312156118c2576118c161184a565b5b60006118d084828501611897565b91505092915050565b60008115159050919050565b6118ee816118d9565b82525050565b600060208201905061190960008301846118e5565b92915050565b600081519050919050565b600082825260208201905092915050565b60005b8381101561194957808201518184015260208101905061192e565b60008484015250505050565b6000601f19601f8301169050919050565b60006119718261190f565b61197b818561191a565b935061198b81856020860161192b565b61199481611955565b840191505092915050565b600060208201905081810360008301526119b98184611966565b905092915050565b6000819050919050565b6119d4816119c1565b81146119df57600080fd5b50565b6000813590506119f1816119cb565b92915050565b600060208284031215611a0d57611a0c61184a565b5b6000611a1b848285016119e2565b91505092915050565b600073ffffffffffffffffffffffffffffffffffffffff82169050919050565b6000611a4f82611a24565b9050919050565b611a5f81611a44565b82525050565b6000602082019050611a7a6000830184611a56565b92915050565b611a8981611a44565b8114611a9457600080fd5b50565b600081359050611aa681611a80565b92915050565b60008060408385031215611ac357611ac261184a565b5b6000611ad185828601611a97565b9250506020611ae2858286016119e2565b9150509250929050565b600080600060608486031215611b0557611b0461184a565b5b6000611b1386828701611a97565b9350506020611b2486828701611a97565b9250506040611b35868287016119e2565b9150509250925092565b611b48816119c1565b82525050565b6000602082019050611b636000830184611b3f565b92915050565b600060208284031215611b7f57611b7e61184a565b5b6000611b8d84828501611a97565b91505092915050565b611b9f816118d9565b8114611baa57600080fd5b50565b600081359050611bbc81611b96565b92915050565b60008060408385031215611bd957611bd861184a565b5b6000611be785828601611a97565b9250506020611bf885828601611bad565b9150509250929050565b600080fd5b600080fd5b7f4e487b7100000000000000000000000000000000000000000000000000000000600052604160045260246000fd5b611c4482611955565b810181811067ffffffffffffffff82111715611c6357611c62611c0c565b5b80604052505050565b6000611c76611840565b9050611c828282611c3b565b919050565b600067ffffffffffffffff821115611ca257611ca1611c0c565b5b611cab82611955565b9050602081019050919050565b82818337600083830152505050565b6000611cda611cd584611c87565b611c6c565b905082815260208101848484011115611cf657611cf5611c07565b5b611d01848285611cb8565b509392505050565b600082601f830112611d1e57611d1d611c02565b5b8135611d2e848260208601611cc7565b91505092915050565b60008060008060808587031215611d5157611d5061184a565b5b6000611d5f87828801611a97565b9450506020611d7087828801611a97565b9350506040611d81878288016119e2565b925050606085013567ffffffffffffffff811115611da257611da161184f565b5b611dae87828801611d09565b91505092959194509250565b60008060408385031215611dd157611dd061184a565b5b6000611ddf85828601611a97565b9250506020611df085828601611a97565b9150509250929050565b600081519050919050565b600082825260208201905092915050565b6000819050602082019050919050565b611e2f816119c1565b82525050565b6000611e418383611e26565b60208301905092915050565b6000602082019050919050565b6000611e6582611dfa565b611e6f8185611e05565b9350611e7a83611e16565b8060005b83811015611eab578151611e928882611e35565b9750611e9d83611e4d565b925050600181019050611e7e565b5085935050505092915050565b60006020820190508181036000830152611ed28184611e5a565b905092915050565b7f4e487b7100000000000000000000000000000000000000000000000000000000600052602260045260246000fd5b60006002820490506001821680611f2157607f821691505b602082108103611f3457611f33611eda565b5b50919050565b6000606082019050611f4f6000830186611a56565b611f5c6020830185611b3f565b611f696040830184611a56565b949350505050565b7f4e46542072756e206f7574000000000000000000000000000000000000000000600082015250565b6000611fa7600b8361191a565b9150611fb282611f71565b602082019050919050565b60006020820190508181036000830152611fd681611f9a565b9050919050565b7f4e487b7100000000000000000000000000000000000000000000000000000000600052601160045260246000fd5b6000612017826119c1565b91507fffffffffffffffffffffffffffffffffffffffffffffffffffffffffffffffff820361204957612048611fdd565b5b600182019050919050565b600081905092915050565b600061206a8261190f565b6120748185612054565b935061208481856020860161192b565b80840191505092915050565b600061209c828561205f565b91506120a8828461205f565b91508190509392505050565b600081519050919050565b600082825260208201905092915050565b60006120db826120b4565b6120e581856120bf565b93506120f581856020860161192b565b6120fe81611955565b840191505092915050565b600060808201905061211e6000830187611a56565b61212b6020830186611a56565b6121386040830185611b3f565b818103606083015261214a81846120d0565b905095945050505050565b60008151905061216481611880565b92915050565b6000602082840312156121805761217f61184a565b5b600061218e84828501612155565b91505092915050565b7f4e487b7100000000000000000000000000000000000000000000000000000000600052601260045260246000fd5b60006040820190506121db6000830185611a56565b6121e86020830184611b3f565b939250505056fea26469706673582212202170997188b61601939d183dfe40b18f65310d165581677c72f7b10759d5928864736f6c63430008140033",
  "linkReferences": {},
  "deployedLinkReferences": {}
}