{
  "_format": "hh-sol-artifact-1",
  "contractName": "MyERC721",
  "sourceName": "contracts/MyERC721.sol",
  "abi": [
    {
      "inputs": [
        {
          "internalType": "string",
          "name": "name_",
          "type": "string"
        },
        {
          "internalType": "string",
          "name": "symbol_",
          "type": "string"
        }
      ],
      "stateMutability": "nonpayable",
      "type": "constructor"
    },
    {
      "inputs": [
        {
          "internalType": "address",
          "name": "sender",
          "type": "address"
        },
        {
          "internalType": "uint256",
          "name": "tokenId",
          "type": "uint256"
        },
        {
          "internalType": "address",
          "name": "owner",
          "type": "address"
        }
      ],
      "name": "ERC721IncorrectOwner",
      "type": "error"
    },
    {
      "inputs": [
        {
          "internalType": "address",
          "name": "operator",
          "type": "address"
        },
        {
          "internalType": "uint256",
          "name": "tokenId",
          "type": "uint256"
        }
      ],
      "name": "ERC721InsufficientApproval",
      "type": "error"
    },
    {
      "inputs": [
        {
          "internalType": "address",
          "name": "approver",
          "type": "address"
        }
      ],
      "name": "ERC721InvalidApprover",
      "type": "error"
    },
    {
      "inputs": [
        {
          "internalType": "address",
          "name": "operator",
          "type": "address"
        }
      ],
      "name": "ERC721InvalidOperator",
      "type": "error"
    },
    {
      "inputs": [
        {
          "internalType": "address",
          "name": "owner",
          "type": "address"
        }
      ],
      "name": "ERC721InvalidOwner",
      "type": "error"
    },
    {
      "inputs": [
        {
          "internalType": "address",
          "name": "receiver",
          "type": "address"
        }
      ],
      "name": "ERC721InvalidReceiver",
      "type": "error"
    },
    {
      "inputs": [
        {
          "internalType": "address",
          "name": "sender",
          "type": "address"
        }
      ],
      "name": "ERC721InvalidSender",
      "type": "error"
    },
    {
      "inputs": [
        {
          "internalType": "uint256",
          "name": "tokenId",
          "type": "uint256"
        }
      ],
      "name": "ERC721NonexistentToken",
      "type": "error"
    },
    {
      "anonymous": false,
      "inputs": [
        {
          "indexed": true,
          "internalType": "address",
          "name": "owner",
          "type": "address"
        },
        {
          "indexed": true,
          "internalType": "address",
          "name": "approved",
          "type": "address"
        },
        {
          "indexed": true,
          "internalType": "uint256",
          "name": "tokenId",
          "type": "uint256"
        }
      ],
      "name": "Approval",
      "type": "event"
    },
    {
      "anonymous": false,
      "inputs": [
        {
          "indexed": true,
          "internalType": "address",
          "name": "owner",
          "type": "address"
        },
        {
          "indexed": true,
          "internalType": "address",
          "name": "operator",
          "type": "address"
        },
        {
          "indexed": false,
          "internalType": "bool",
          "name": "approved",
          "type": "bool"
        }
      ],
      "name": "ApprovalForAll",
      "type": "event"
    },
    {
      "anonymous": false,
      "inputs": [
        {
          "indexed": true,
          "internalType": "address",
          "name": "from",
          "type": "address"
        },
        {
          "indexed": true,
          "internalType": "address",
          "name": "to",
          "type": "address"
        },
        {
          "indexed": true,
          "internalType": "uint256",
          "name": "tokenId",
          "type": "uint256"
        }
      ],
      "name": "Transfer",
      "type": "event"
    },
    {
      "inputs": [
        {
          "internalType": "address",
          "name": "",
          "type": "address"
        },
        {
          "internalType": "uint256",
          "name": "",
          "type": "uint256"
        }
      ],
      "name": "Houses",
      "outputs": [
        {
          "internalType": "uint256",
          "name": "",
          "type": "uint256"
        }
      ],
      "stateMutability": "view",
      "type": "function"
    },
    {
      "inputs": [],
      "name": "MAX_NTF",
      "outputs": [
        {
          "internalType": "uint256",
          "name": "",
          "type": "uint256"
        }
      ],
      "stateMutability": "view",
      "type": "function"
    },
    {
      "inputs": [],
      "name": "TOKEN_ID",
      "outputs": [
        {
          "internalType": "uint256",
          "name": "",
          "type": "uint256"
        }
      ],
      "stateMutability": "view",
      "type": "function"
    },
    {
      "inputs": [
        {
          "internalType": "address",
          "name": "to",
          "type": "address"
        },
        {
          "internalType": "uint256",
          "name": "tokenId",
          "type": "uint256"
        }
      ],
      "name": "approve",
      "outputs": [],
      "stateMutability": "nonpayable",
      "type": "function"
    },
    {
      "inputs": [
        {
          "internalType": "address",
          "name": "owner",
          "type": "address"
        }
      ],
      "name": "balanceOf",
      "outputs": [
        {
          "internalType": "uint256",
          "name": "",
          "type": "uint256"
        }
      ],
      "stateMutability": "view",
      "type": "function"
    },
    {
      "inputs": [
        {
          "internalType": "uint256",
          "name": "tokenId",
          "type": "uint256"
        }
      ],
      "name": "getApproved",
      "outputs": [
        {
          "internalType": "address",
          "name": "",
          "type": "address"
        }
      ],
      "stateMutability": "view",
      "type": "function"
    },
    {
      "inputs": [],
      "name": "getTotalid",
      "outputs": [
        {
          "internalType": "uint256",
          "name": "",
          "type": "uint256"
        }
      ],
      "stateMutability": "view",
      "type": "function"
    },
    {
      "inputs": [
        {
          "internalType": "address",
          "name": "owner",
          "type": "address"
        },
        {
          "internalType": "address",
          "name": "operator",
          "type": "address"
        }
      ],
      "name": "isApprovedForAll",
      "outputs": [
        {
          "internalType": "bool",
          "name": "",
          "type": "bool"
        }
      ],
      "stateMutability": "view",
      "type": "function"
    },
    {
      "inputs": [
        {
          "internalType": "address",
          "name": "to",
          "type": "address"
        }
      ],
      "name": "mint",
      "outputs": [],
      "stateMutability": "nonpayable",
      "type": "function"
    },
    {
      "inputs": [],
      "name": "name",
      "outputs": [
        {
          "internalType": "string",
          "name": "",
          "type": "string"
        }
      ],
      "stateMutability": "view",
      "type": "function"
    },
    {
      "inputs": [
        {
          "internalType": "uint256",
          "name": "tokenId",
          "type": "uint256"
        }
      ],
      "name": "ownerOf",
      "outputs": [
        {
          "internalType": "address",
          "name": "",
          "type": "address"
        }
      ],
      "stateMutability": "view",
      "type": "function"
    },
    {
      "inputs": [
        {
          "internalType": "address",
          "name": "from",
          "type": "address"
        },
        {
          "internalType": "address",
          "name": "to",
          "type": "address"
        },
        {
          "internalType": "uint256",
          "name": "tokenId",
          "type": "uint256"
        }
      ],
      "name": "safeTransferFrom",
      "outputs": [],
      "stateMutability": "nonpayable",
      "type": "function"
    },
    {
      "inputs": [
        {
          "internalType": "address",
          "name": "from",
          "type": "address"
        },
        {
          "internalType": "address",
          "name": "to",
          "type": "address"
        },
        {
          "internalType": "uint256",
          "name": "tokenId",
          "type": "uint256"
        },
        {
          "internalType": "bytes",
          "name": "data",
          "type": "bytes"
        }
      ],
      "name": "safeTransferFrom",
      "outputs": [],
      "stateMutability": "nonpayable",
      "type": "function"
    },
    {
      "inputs": [
        {
          "internalType": "address",
          "name": "operator",
          "type": "address"
        },
        {
          "internalType": "bool",
          "name": "approved",
          "type": "bool"
        }
      ],
      "name": "setApprovalForAll",
      "outputs": [],
      "stateMutability": "nonpayable",
      "type": "function"
    },
    {
      "inputs": [
        {
          "internalType": "bytes4",
          "name": "interfaceId",
          "type": "bytes4"
        }
      ],
      "name": "supportsInterface",
      "outputs": [
        {
          "internalType": "bool",
          "name": "",
          "type": "bool"
        }
      ],
      "stateMutability": "view",
      "type": "function"
    },
    {
      "inputs": [],
      "name": "symbol",
      "outputs": [
        {
          "internalType": "string",
          "name": "",
          "type": "string"
        }
      ],
      "stateMutability": "view",
      "type": "function"
    },
    {
      "inputs": [
        {
          "internalType": "uint256",
          "name": "tokenId",
          "type": "uint256"
        }
      ],
      "name": "tokenURI",
      "outputs": [
        {
          "internalType": "string",
          "name": "",
          "type": "string"
        }
      ],
      "stateMutability": "view",
      "type": "function"
    },
    {
      "inputs": [
        {
          "internalType": "address",
          "name": "from",
          "type": "address"
        },
        {
          "internalType": "address",
          "name": "to",
          "type": "address"
        },
        {
          "internalType": "uint256",
          "name": "tokenId",
          "type": "uint256"
        }
      ],
      "name": "transferFrom",
      "outputs": [],
      "stateMutability": "nonpayable",
      "type": "function"
    }
  ],
  "bytecode": "0x608060405260006006553480156200001657600080fd5b506040516200264d3803806200264d83398181016040528101906200003c9190620001ff565b818181600090816200004f9190620004cf565b508060019081620000619190620004cf565b5050505050620005b6565b6000604051905090565b600080fd5b600080fd5b600080fd5b600080fd5b6000601f19601f8301169050919050565b7f4e487b7100000000000000000000000000000000000000000000000000000000600052604160045260246000fd5b620000d5826200008a565b810181811067ffffffffffffffff82111715620000f757620000f66200009b565b5b80604052505050565b60006200010c6200006c565b90506200011a8282620000ca565b919050565b600067ffffffffffffffff8211156200013d576200013c6200009b565b5b62000148826200008a565b9050602081019050919050565b60005b838110156200017557808201518184015260208101905062000158565b60008484015250505050565b60006200019862000192846200011f565b62000100565b905082815260208101848484011115620001b757620001b662000085565b5b620001c484828562000155565b509392505050565b600082601f830112620001e457620001e362000080565b5b8151620001f684826020860162000181565b91505092915050565b6000806040838503121562000219576200021862000076565b5b600083015167ffffffffffffffff8111156200023a57620002396200007b565b5b6200024885828601620001cc565b925050602083015167ffffffffffffffff8111156200026c576200026b6200007b565b5b6200027a85828601620001cc565b9150509250929050565b600081519050919050565b7f4e487b7100000000000000000000000000000000000000000000000000000000600052602260045260246000fd5b60006002820490506001821680620002d757607f821691505b602082108103620002ed57620002ec6200028f565b5b50919050565b60008190508160005260206000209050919050565b60006020601f8301049050919050565b600082821b905092915050565b600060088302620003577fffffffffffffffffffffffffffffffffffffffffffffffffffffffffffffffff8262000318565b62000363868362000318565b95508019841693508086168417925050509392505050565b6000819050919050565b6000819050919050565b6000620003b0620003aa620003a4846200037b565b62000385565b6200037b565b9050919050565b6000819050919050565b620003cc836200038f565b620003e4620003db82620003b7565b84845462000325565b825550505050565b600090565b620003fb620003ec565b62000408818484620003c1565b505050565b5b81811015620004305762000424600082620003f1565b6001810190506200040e565b5050565b601f8211156200047f576200044981620002f3565b620004548462000308565b8101602085101562000464578190505b6200047c620004738562000308565b8301826200040d565b50505b505050565b600082821c905092915050565b6000620004a46000198460080262000484565b1980831691505092915050565b6000620004bf838362000491565b9150826002028217905092915050565b620004da8262000284565b67ffffffffffffffff811115620004f657620004f56200009b565b5b620005028254620002be565b6200050f82828562000434565b600060209050601f83116001811462000547576000841562000532578287015190505b6200053e8582620004b1565b865550620005ae565b601f1984166200055786620002f3565b60005b8281101562000581578489015182556001820191506020850194506020810190506200055a565b86831015620005a157848901516200059d601f89168262000491565b8355505b6001600288020188555050505b505050505050565b61208780620005c66000396000f3fe608060405234801561001057600080fd5b50600436106101165760003560e01c806370a08231116100a2578063a22cb46511610071578063a22cb465146102f3578063b88d4fde1461030f578063c87b56dd1461032b578063e6bc39da1461035b578063e985e9c51461037957610116565b806370a082311461026957806389a89002146102995780638b11a71e146102b757806395d89b41146102d557610116565b806323b872dd116100e957806323b872dd146101b557806342842e0e146101d157806345d37cbb146101ed5780636352211e1461021d5780636a6278421461024d57610116565b806301ffc9a71461011b57806306fdde031461014b578063081812fc14610169578063095ea7b314610199575b600080fd5b610135600480360381019061013091906117bf565b6103a9565b6040516101429190611807565b60405180910390f35b61015361048b565b60405161016091906118b2565b60405180910390f35b610183600480360381019061017e919061190a565b61051d565b6040516101909190611978565b60405180910390f35b6101b360048036038101906101ae91906119bf565b610539565b005b6101cf60048036038101906101ca91906119ff565b61054f565b005b6101eb60048036038101906101e691906119ff565b610651565b005b610207600480360381019061020291906119bf565b610671565b6040516102149190611a61565b60405180910390f35b6102376004803603810190610232919061190a565b610699565b6040516102449190611978565b60405180910390f35b61026760048036038101906102629190611a7c565b6106ab565b005b610283600480360381019061027e9190611a7c565b610781565b6040516102909190611a61565b60405180910390f35b6102a161083b565b6040516102ae9190611a61565b60405180910390f35b6102bf610841565b6040516102cc9190611a61565b60405180910390f35b6102dd61084b565b6040516102ea91906118b2565b60405180910390f35b61030d60048036038101906103089190611ad5565b6108dd565b005b61032960048036038101906103249190611c4a565b6108f3565b005b6103456004803603810190610340919061190a565b610910565b60405161035291906118b2565b60405180910390f35b610363610979565b6040516103709190611a61565b60405180910390f35b610393600480360381019061038e9190611ccd565b61097e565b6040516103a09190611807565b60405180910390f35b60007f80ac58cd000000000000000000000000000000000000000000000000000000007bffffffffffffffffffffffffffffffffffffffffffffffffffffffff1916827bffffffffffffffffffffffffffffffffffffffffffffffffffffffff1916148061047457507f5b5e139f000000000000000000000000000000000000000000000000000000007bffffffffffffffffffffffffffffffffffffffffffffffffffffffff1916827bffffffffffffffffffffffffffffffffffffffffffffffffffffffff1916145b80610484575061048382610a12565b5b9050919050565b60606000805461049a90611d3c565b80601f01602080910402602001604051908101604052809291908181526020018280546104c690611d3c565b80156105135780601f106104e857610100808354040283529160200191610513565b820191906000526020600020905b8154815290600101906020018083116104f657829003601f168201915b5050505050905090565b600061052882610a7c565b5061053282610b04565b9050919050565b61054b8282610546610b41565b610b49565b5050565b600073ffffffffffffffffffffffffffffffffffffffff168273ffffffffffffffffffffffffffffffffffffffff16036105c15760006040517f64a0ae920000000000000000000000000000000000000000000000000000000081526004016105b89190611978565b60405180910390fd5b60006105d583836105d0610b41565b610b5b565b90508373ffffffffffffffffffffffffffffffffffffffff168173ffffffffffffffffffffffffffffffffffffffff161461064b578382826040517f64283d7b00000000000000000000000000000000000000000000000000000000815260040161064293929190611d6d565b60405180910390fd5b50505050565b61066c838383604051806020016040528060008152506108f3565b505050565b6007602052816000526040600020816064811061068d57600080fd5b01600091509150505481565b60006106a482610a7c565b9050919050565b6000600654101580156106c057506064600654105b6106ff576040517f08c379a00000000000000000000000000000000000000000000000000000000081526004016106f690611df0565b60405180910390fd5b61070b81600654610d75565b600654600760008373ffffffffffffffffffffffffffffffffffffffff1673ffffffffffffffffffffffffffffffffffffffff1681526020019081526020016000206006546064811061076157610760611e10565b5b01819055506006600081548092919061077990611e6e565b919050555050565b60008073ffffffffffffffffffffffffffffffffffffffff168273ffffffffffffffffffffffffffffffffffffffff16036107f45760006040517f89c62b640000000000000000000000000000000000000000000000000000000081526004016107eb9190611978565b60405180910390fd5b600360008373ffffffffffffffffffffffffffffffffffffffff1673ffffffffffffffffffffffffffffffffffffffff168152602001908152602001600020549050919050565b60065481565b6000600654905090565b60606001805461085a90611d3c565b80601f016020809104026020016040519081016040528092919081815260200182805461088690611d3c565b80156108d35780601f106108a8576101008083540402835291602001916108d3565b820191906000526020600020905b8154815290600101906020018083116108b657829003601f168201915b5050505050905090565b6108ef6108e8610b41565b8383610e6e565b5050565b6108fe84848461054f565b61090a84848484610fdd565b50505050565b606061091b82610a7c565b506000610926611194565b905060008151116109465760405180602001604052806000815250610971565b80610950846111ab565b604051602001610961929190611ef2565b6040516020818303038152906040525b915050919050565b606481565b6000600560008473ffffffffffffffffffffffffffffffffffffffff1673ffffffffffffffffffffffffffffffffffffffff16815260200190815260200160002060008373ffffffffffffffffffffffffffffffffffffffff1673ffffffffffffffffffffffffffffffffffffffff16815260200190815260200160002060009054906101000a900460ff16905092915050565b60007f01ffc9a7000000000000000000000000000000000000000000000000000000007bffffffffffffffffffffffffffffffffffffffffffffffffffffffff1916827bffffffffffffffffffffffffffffffffffffffffffffffffffffffff1916149050919050565b600080610a8883611279565b9050600073ffffffffffffffffffffffffffffffffffffffff168173ffffffffffffffffffffffffffffffffffffffff1603610afb57826040517f7e273289000000000000000000000000000000000000000000000000000000008152600401610af29190611a61565b60405180910390fd5b80915050919050565b60006004600083815260200190815260200160002060009054906101000a900473ffffffffffffffffffffffffffffffffffffffff169050919050565b600033905090565b610b5683838360016112b6565b505050565b600080610b6784611279565b9050600073ffffffffffffffffffffffffffffffffffffffff168373ffffffffffffffffffffffffffffffffffffffff1614610ba957610ba881848661147b565b5b600073ffffffffffffffffffffffffffffffffffffffff168173ffffffffffffffffffffffffffffffffffffffff1614610c3a57610beb6000856000806112b6565b6001600360008373ffffffffffffffffffffffffffffffffffffffff1673ffffffffffffffffffffffffffffffffffffffff168152602001908152602001600020600082825403925050819055505b600073ffffffffffffffffffffffffffffffffffffffff168573ffffffffffffffffffffffffffffffffffffffff1614610cbd576001600360008773ffffffffffffffffffffffffffffffffffffffff1673ffffffffffffffffffffffffffffffffffffffff168152602001908152602001600020600082825401925050819055505b846002600086815260200190815260200160002060006101000a81548173ffffffffffffffffffffffffffffffffffffffff021916908373ffffffffffffffffffffffffffffffffffffffff160217905550838573ffffffffffffffffffffffffffffffffffffffff168273ffffffffffffffffffffffffffffffffffffffff167fddf252ad1be2c89b69c2b068fc378daa952ba7f163c4a11628f55a4df523b3ef60405160405180910390a4809150509392505050565b600073ffffffffffffffffffffffffffffffffffffffff168273ffffffffffffffffffffffffffffffffffffffff1603610de75760006040517f64a0ae92000000000000000000000000000000000000000000000000000000008152600401610dde9190611978565b60405180910390fd5b6000610df583836000610b5b565b9050600073ffffffffffffffffffffffffffffffffffffffff168173ffffffffffffffffffffffffffffffffffffffff1614610e695760006040517f73c6ac6e000000000000000000000000000000000000000000000000000000008152600401610e609190611978565b60405180910390fd5b505050565b600073ffffffffffffffffffffffffffffffffffffffff168273ffffffffffffffffffffffffffffffffffffffff1603610edf57816040517f5b08ba18000000000000000000000000000000000000000000000000000000008152600401610ed69190611978565b60405180910390fd5b80600560008573ffffffffffffffffffffffffffffffffffffffff1673ffffffffffffffffffffffffffffffffffffffff16815260200190815260200160002060008473ffffffffffffffffffffffffffffffffffffffff1673ffffffffffffffffffffffffffffffffffffffff16815260200190815260200160002060006101000a81548160ff0219169083151502179055508173ffffffffffffffffffffffffffffffffffffffff168373ffffffffffffffffffffffffffffffffffffffff167f17307eab39ab6107e8899845ad3d59bd9653f200f220920489ca2b5937696c3183604051610fd09190611807565b60405180910390a3505050565b60008373ffffffffffffffffffffffffffffffffffffffff163b111561118e578273ffffffffffffffffffffffffffffffffffffffff1663150b7a02611021610b41565b8685856040518563ffffffff1660e01b81526004016110439493929190611f6b565b6020604051808303816000875af192505050801561107f57506040513d601f19601f8201168201806040525081019061107c9190611fcc565b60015b611103573d80600081146110af576040519150601f19603f3d011682016040523d82523d6000602084013e6110b4565b606091505b5060008151036110fb57836040517f64a0ae920000000000000000000000000000000000000000000000000000000081526004016110f29190611978565b60405180910390fd5b805181602001fd5b63150b7a0260e01b7bffffffffffffffffffffffffffffffffffffffffffffffffffffffff1916817bffffffffffffffffffffffffffffffffffffffffffffffffffffffff19161461118c57836040517f64a0ae920000000000000000000000000000000000000000000000000000000081526004016111839190611978565b60405180910390fd5b505b50505050565b606060405180602001604052806000815250905090565b6060600060016111ba8461153f565b01905060008167ffffffffffffffff8111156111d9576111d8611b1f565b5b6040519080825280601f01601f19166020018201604052801561120b5781602001600182028036833780820191505090505b509050600082602001820190505b60011561126e578080600190039150507f3031323334353637383961626364656600000000000000000000000000000000600a86061a8153600a858161126257611261611ff9565b5b04945060008503611219575b819350505050919050565b60006002600083815260200190815260200160002060009054906101000a900473ffffffffffffffffffffffffffffffffffffffff169050919050565b80806112ef5750600073ffffffffffffffffffffffffffffffffffffffff168273ffffffffffffffffffffffffffffffffffffffff1614155b156114235760006112ff84610a7c565b9050600073ffffffffffffffffffffffffffffffffffffffff168373ffffffffffffffffffffffffffffffffffffffff161415801561136a57508273ffffffffffffffffffffffffffffffffffffffff168173ffffffffffffffffffffffffffffffffffffffff1614155b801561137d575061137b818461097e565b155b156113bf57826040517fa9fbf51f0000000000000000000000000000000000000000000000000000000081526004016113b69190611978565b60405180910390fd5b811561142157838573ffffffffffffffffffffffffffffffffffffffff168273ffffffffffffffffffffffffffffffffffffffff167f8c5be1e5ebec7d5bd14f71427d1e84f3dd0314c0f7b2291e5b200ac8c7c3b92560405160405180910390a45b505b836004600085815260200190815260200160002060006101000a81548173ffffffffffffffffffffffffffffffffffffffff021916908373ffffffffffffffffffffffffffffffffffffffff16021790555050505050565b611486838383611692565b61153a57600073ffffffffffffffffffffffffffffffffffffffff168373ffffffffffffffffffffffffffffffffffffffff16036114fb57806040517f7e2732890000000000000000000000000000000000000000000000000000000081526004016114f29190611a61565b60405180910390fd5b81816040517f177e802f000000000000000000000000000000000000000000000000000000008152600401611531929190612028565b60405180910390fd5b505050565b600080600090507a184f03e93ff9f4daa797ed6e38ed64bf6a1f010000000000000000831061159d577a184f03e93ff9f4daa797ed6e38ed64bf6a1f010000000000000000838161159357611592611ff9565b5b0492506040810190505b6d04ee2d6d415b85acef810000000083106115da576d04ee2d6d415b85acef810000000083816115d0576115cf611ff9565b5b0492506020810190505b662386f26fc10000831061160957662386f26fc1000083816115ff576115fe611ff9565b5b0492506010810190505b6305f5e1008310611632576305f5e100838161162857611627611ff9565b5b0492506008810190505b612710831061165757612710838161164d5761164c611ff9565b5b0492506004810190505b6064831061167a57606483816116705761166f611ff9565b5b0492506002810190505b600a8310611689576001810190505b80915050919050565b60008073ffffffffffffffffffffffffffffffffffffffff168373ffffffffffffffffffffffffffffffffffffffff161415801561174a57508273ffffffffffffffffffffffffffffffffffffffff168473ffffffffffffffffffffffffffffffffffffffff16148061170b575061170a848461097e565b5b8061174957508273ffffffffffffffffffffffffffffffffffffffff1661173183610b04565b73ffffffffffffffffffffffffffffffffffffffff16145b5b90509392505050565b6000604051905090565b600080fd5b600080fd5b60007fffffffff0000000000000000000000000000000000000000000000000000000082169050919050565b61179c81611767565b81146117a757600080fd5b50565b6000813590506117b981611793565b92915050565b6000602082840312156117d5576117d461175d565b5b60006117e3848285016117aa565b91505092915050565b60008115159050919050565b611801816117ec565b82525050565b600060208201905061181c60008301846117f8565b92915050565b600081519050919050565b600082825260208201905092915050565b60005b8381101561185c578082015181840152602081019050611841565b60008484015250505050565b6000601f19601f8301169050919050565b600061188482611822565b61188e818561182d565b935061189e81856020860161183e565b6118a781611868565b840191505092915050565b600060208201905081810360008301526118cc8184611879565b905092915050565b6000819050919050565b6118e7816118d4565b81146118f257600080fd5b50565b600081359050611904816118de565b92915050565b6000602082840312156119205761191f61175d565b5b600061192e848285016118f5565b91505092915050565b600073ffffffffffffffffffffffffffffffffffffffff82169050919050565b600061196282611937565b9050919050565b61197281611957565b82525050565b600060208201905061198d6000830184611969565b92915050565b61199c81611957565b81146119a757600080fd5b50565b6000813590506119b981611993565b92915050565b600080604083850312156119d6576119d561175d565b5b60006119e4858286016119aa565b92505060206119f5858286016118f5565b9150509250929050565b600080600060608486031215611a1857611a1761175d565b5b6000611a26868287016119aa565b9350506020611a37868287016119aa565b9250506040611a48868287016118f5565b9150509250925092565b611a5b816118d4565b82525050565b6000602082019050611a766000830184611a52565b92915050565b600060208284031215611a9257611a9161175d565b5b6000611aa0848285016119aa565b91505092915050565b611ab2816117ec565b8114611abd57600080fd5b50565b600081359050611acf81611aa9565b92915050565b60008060408385031215611aec57611aeb61175d565b5b6000611afa858286016119aa565b9250506020611b0b85828601611ac0565b9150509250929050565b600080fd5b600080fd5b7f4e487b7100000000000000000000000000000000000000000000000000000000600052604160045260246000fd5b611b5782611868565b810181811067ffffffffffffffff82111715611b7657611b75611b1f565b5b80604052505050565b6000611b89611753565b9050611b958282611b4e565b919050565b600067ffffffffffffffff821115611bb557611bb4611b1f565b5b611bbe82611868565b9050602081019050919050565b82818337600083830152505050565b6000611bed611be884611b9a565b611b7f565b905082815260208101848484011115611c0957611c08611b1a565b5b611c14848285611bcb565b509392505050565b600082601f830112611c3157611c30611b15565b5b8135611c41848260208601611bda565b91505092915050565b60008060008060808587031215611c6457611c6361175d565b5b6000611c72878288016119aa565b9450506020611c83878288016119aa565b9350506040611c94878288016118f5565b925050606085013567ffffffffffffffff811115611cb557611cb4611762565b5b611cc187828801611c1c565b91505092959194509250565b60008060408385031215611ce457611ce361175d565b5b6000611cf2858286016119aa565b9250506020611d03858286016119aa565b9150509250929050565b7f4e487b7100000000000000000000000000000000000000000000000000000000600052602260045260246000fd5b60006002820490506001821680611d5457607f821691505b602082108103611d6757611d66611d0d565b5b50919050565b6000606082019050611d826000830186611969565b611d8f6020830185611a52565b611d9c6040830184611969565b949350505050565b7f4e46542072756e206f7574000000000000000000000000000000000000000000600082015250565b6000611dda600b8361182d565b9150611de582611da4565b602082019050919050565b60006020820190508181036000830152611e0981611dcd565b9050919050565b7f4e487b7100000000000000000000000000000000000000000000000000000000600052603260045260246000fd5b7f4e487b7100000000000000000000000000000000000000000000000000000000600052601160045260246000fd5b6000611e79826118d4565b91507fffffffffffffffffffffffffffffffffffffffffffffffffffffffffffffffff8203611eab57611eaa611e3f565b5b600182019050919050565b600081905092915050565b6000611ecc82611822565b611ed68185611eb6565b9350611ee681856020860161183e565b80840191505092915050565b6000611efe8285611ec1565b9150611f0a8284611ec1565b91508190509392505050565b600081519050919050565b600082825260208201905092915050565b6000611f3d82611f16565b611f478185611f21565b9350611f5781856020860161183e565b611f6081611868565b840191505092915050565b6000608082019050611f806000830187611969565b611f8d6020830186611969565b611f9a6040830185611a52565b8181036060830152611fac8184611f32565b905095945050505050565b600081519050611fc681611793565b92915050565b600060208284031215611fe257611fe161175d565b5b6000611ff084828501611fb7565b91505092915050565b7f4e487b7100000000000000000000000000000000000000000000000000000000600052601260045260246000fd5b600060408201905061203d6000830185611969565b61204a6020830184611a52565b939250505056fea264697066735822122062e3bf3532d816fd7bb5f8839078e688677e81d962d4f47fc55ea4af479a425464736f6c63430008140033",
  "linkReferences": {},
  "deployedLinkReferences": {}
}